{
  "_format": "hh-sol-artifact-1",
  "contractName": "Marketplace",
  "sourceName": "contracts/MarketPlace.sol",
  "abi": [
    {
      "inputs": [],
      "stateMutability": "nonpayable",
      "type": "constructor"
    },
    {
      "inputs": [],
      "name": "DisputeAlreadyRaised",
      "type": "error"
    },
    {
      "inputs": [],
      "name": "DisputeNotFound",
      "type": "error"
    },
    {
      "inputs": [],
      "name": "IncorrectPaymentAmount",
      "type": "error"
    },
    {
      "inputs": [],
      "name": "InsufficientStock",
      "type": "error"
    },
    {
      "inputs": [],
      "name": "InvalidDisputeResolution",
      "type": "error"
    },
    {
      "inputs": [],
      "name": "InvalidMedicineId",
      "type": "error"
    },
    {
      "inputs": [],
      "name": "InvalidOneTimeCode",
      "type": "error"
    },
    {
      "inputs": [],
      "name": "MedicationExpired",
      "type": "error"
    },
    {
      "inputs": [],
      "name": "MedicationNotAvailable",
      "type": "error"
    },
    {
      "inputs": [],
      "name": "MedicationNotListed",
      "type": "error"
    },
    {
      "inputs": [],
      "name": "NoFundsInEscrow",
      "type": "error"
    },
    {
      "inputs": [],
      "name": "PaymentFailed",
      "type": "error"
    },
    {
      "inputs": [],
      "name": "TransactionAlreadyCompleted",
      "type": "error"
    },
    {
      "inputs": [],
      "name": "TransactionAlreadyExists",
      "type": "error"
    },
    {
      "inputs": [],
      "name": "UnauthorizedAccess",
      "type": "error"
    },
    {
      "inputs": [],
      "name": "UnauthorizedRelease",
      "type": "error"
    },
    {
      "inputs": [],
      "name": "ZeroEscrowAmount",
      "type": "error"
    },
    {
      "anonymous": false,
      "inputs": [
        {
          "indexed": true,
          "internalType": "uint256",
          "name": "medicineId",
          "type": "uint256"
        },
        {
          "indexed": true,
          "internalType": "address",
          "name": "customer",
          "type": "address"
        },
        {
          "indexed": false,
          "internalType": "string",
          "name": "reason",
          "type": "string"
        }
      ],
      "name": "DisputeRaised",
      "type": "event"
    },
    {
      "anonymous": false,
      "inputs": [
        {
          "indexed": true,
          "internalType": "uint256",
          "name": "medicineId",
          "type": "uint256"
        },
        {
          "indexed": false,
          "internalType": "bool",
          "name": "approvedForCustomer",
          "type": "bool"
        }
      ],
      "name": "DisputeResolved",
      "type": "event"
    },
    {
      "anonymous": false,
      "inputs": [
        {
          "indexed": false,
          "internalType": "bytes32",
          "name": "transactionId",
          "type": "bytes32"
        },
        {
          "indexed": false,
          "internalType": "address",
          "name": "buyer",
          "type": "address"
        },
        {
          "indexed": false,
          "internalType": "address",
          "name": "seller",
          "type": "address"
        },
        {
          "indexed": false,
          "internalType": "uint256",
          "name": "amount",
          "type": "uint256"
        },
        {
          "indexed": false,
          "internalType": "uint256",
          "name": "medicineId",
          "type": "uint256"
        },
        {
          "indexed": false,
          "internalType": "uint256",
          "name": "oneTimeCode",
          "type": "uint256"
        }
      ],
      "name": "EscrowCreated",
      "type": "event"
    },
    {
      "anonymous": false,
      "inputs": [
        {
          "indexed": true,
          "internalType": "uint256",
          "name": "id",
          "type": "uint256"
        },
        {
          "indexed": false,
          "internalType": "bool",
          "name": "isAvailable",
          "type": "bool"
        }
      ],
      "name": "MedicationAvailabilityUpdated",
      "type": "event"
    },
    {
      "anonymous": false,
      "inputs": [
        {
          "indexed": true,
          "internalType": "uint256",
          "name": "id",
          "type": "uint256"
        },
        {
          "indexed": false,
          "internalType": "string",
          "name": "productName",
          "type": "string"
        },
        {
          "indexed": false,
          "internalType": "uint256",
          "name": "pricePerUnit",
          "type": "uint256"
        },
        {
          "indexed": false,
          "internalType": "uint256",
          "name": "stockQuantity",
          "type": "uint256"
        },
        {
          "indexed": true,
          "internalType": "address",
          "name": "owner",
          "type": "address"
        }
      ],
      "name": "MedicationCreated",
      "type": "event"
    },
    {
      "anonymous": false,
      "inputs": [
        {
          "indexed": true,
          "internalType": "uint256",
          "name": "id",
          "type": "uint256"
        },
        {
          "indexed": false,
          "internalType": "bool",
          "name": "isListed",
          "type": "bool"
        }
      ],
      "name": "MedicationListedStatusUpdated",
      "type": "event"
    },
    {
      "anonymous": false,
      "inputs": [
        {
          "indexed": true,
          "internalType": "uint256",
          "name": "id",
          "type": "uint256"
        },
        {
          "indexed": false,
          "internalType": "address",
          "name": "buyer",
          "type": "address"
        },
        {
          "indexed": false,
          "internalType": "uint256",
          "name": "quantityBought",
          "type": "uint256"
        },
        {
          "indexed": false,
          "internalType": "uint256",
          "name": "totalPrice",
          "type": "uint256"
        }
      ],
      "name": "MedicationPurchased",
      "type": "event"
    },
    {
      "anonymous": false,
      "inputs": [
        {
          "indexed": false,
          "internalType": "bytes32",
          "name": "transactionId",
          "type": "bytes32"
        },
        {
          "indexed": false,
          "internalType": "address",
          "name": "buyer",
          "type": "address"
        },
        {
          "indexed": false,
          "internalType": "address",
          "name": "seller",
          "type": "address"
        },
        {
          "indexed": false,
          "internalType": "uint256",
          "name": "amount",
          "type": "uint256"
        }
      ],
      "name": "PaymentReleased",
      "type": "event"
    },
    {
      "anonymous": false,
      "inputs": [
        {
          "indexed": false,
          "internalType": "uint256",
          "name": "newFeePercent",
          "type": "uint256"
        }
      ],
      "name": "PlatformFeeUpdated",
      "type": "event"
    },
    {
      "anonymous": false,
      "inputs": [
        {
          "indexed": true,
          "internalType": "uint256",
          "name": "medicationId",
          "type": "uint256"
        },
        {
          "indexed": false,
          "internalType": "bytes32",
          "name": "escrowId",
          "type": "bytes32"
        },
        {
          "indexed": false,
          "internalType": "address",
          "name": "buyer",
          "type": "address"
        },
        {
          "indexed": false,
          "internalType": "uint256",
          "name": "amount",
          "type": "uint256"
        }
      ],
      "name": "PurchaseEscrowCreated",
      "type": "event"
    },
    {
      "inputs": [
        {
          "internalType": "uint256",
          "name": "",
          "type": "uint256"
        }
      ],
      "name": "allMedications",
      "outputs": [
        {
          "internalType": "uint256",
          "name": "",
          "type": "uint256"
        }
      ],
      "stateMutability": "view",
      "type": "function"
    },
    {
      "inputs": [
        {
          "internalType": "string",
          "name": "_productName",
          "type": "string"
        },
        {
          "internalType": "string",
          "name": "_category",
          "type": "string"
        },
        {
          "internalType": "string",
          "name": "_imageUrl",
          "type": "string"
        },
        {
          "internalType": "uint256",
          "name": "_pricePerUnit",
          "type": "uint256"
        },
        {
          "internalType": "uint256",
          "name": "_stockQuantity",
          "type": "uint256"
        },
        {
          "internalType": "uint256",
          "name": "_expiryDate",
          "type": "uint256"
        },
        {
          "internalType": "bool",
          "name": "_isPrescriptionRequired",
          "type": "bool"
        }
      ],
      "name": "createMedication",
      "outputs": [],
      "stateMutability": "nonpayable",
      "type": "function"
    },
    {
      "inputs": [
        {
          "internalType": "uint256",
          "name": "",
          "type": "uint256"
        }
      ],
      "name": "disputes",
      "outputs": [
        {
          "internalType": "address",
          "name": "customer",
          "type": "address"
        },
        {
          "internalType": "string",
          "name": "reason",
          "type": "string"
        },
        {
          "internalType": "bool",
          "name": "resolved",
          "type": "bool"
        },
        {
          "internalType": "bool",
          "name": "approveCustomer",
          "type": "bool"
        }
      ],
      "stateMutability": "view",
      "type": "function"
    },
    {
      "inputs": [
        {
          "internalType": "bytes32",
          "name": "",
          "type": "bytes32"
        }
      ],
      "name": "escrowToOneTimeCode",
      "outputs": [
        {
          "internalType": "uint256",
          "name": "",
          "type": "uint256"
        }
      ],
      "stateMutability": "view",
      "type": "function"
    },
    {
      "inputs": [
        {
          "internalType": "uint256",
          "name": "medicineId",
          "type": "uint256"
        }
      ],
      "name": "getDispute",
      "outputs": [
        {
          "internalType": "address",
          "name": "customer",
          "type": "address"
        },
        {
          "internalType": "string",
          "name": "reason",
          "type": "string"
        },
        {
          "internalType": "bool",
          "name": "resolved",
          "type": "bool"
        },
        {
          "internalType": "bool",
          "name": "approveCustomer",
          "type": "bool"
        }
      ],
      "stateMutability": "view",
      "type": "function"
    },
    {
      "inputs": [
        {
          "internalType": "uint256",
          "name": "_medicationId",
          "type": "uint256"
        }
      ],
      "name": "getMedicationDetails",
      "outputs": [
        {
          "components": [
            {
              "internalType": "uint256",
              "name": "id",
              "type": "uint256"
            },
            {
              "internalType": "string",
              "name": "productName",
              "type": "string"
            },
            {
              "internalType": "string",
              "name": "category",
              "type": "string"
            },
            {
              "internalType": "string",
              "name": "imageUrl",
              "type": "string"
            },
            {
              "internalType": "uint256",
              "name": "pricePerUnit",
              "type": "uint256"
            },
            {
              "internalType": "uint256",
              "name": "stockQuantity",
              "type": "uint256"
            },
            {
              "internalType": "bool",
              "name": "isListed",
              "type": "bool"
            },
            {
              "internalType": "bool",
              "name": "isAvailable",
              "type": "bool"
            },
            {
              "internalType": "uint256",
              "name": "expiryDate",
              "type": "uint256"
            },
            {
              "internalType": "address",
              "name": "owner",
              "type": "address"
            },
            {
              "internalType": "bool",
              "name": "isPrescriptionRequired",
              "type": "bool"
            }
          ],
          "internalType": "struct Marketplace.Medication",
          "name": "",
          "type": "tuple"
        }
      ],
      "stateMutability": "view",
      "type": "function"
    },
    {
      "inputs": [],
      "name": "getMedications",
      "outputs": [
        {
          "internalType": "uint256[]",
          "name": "",
          "type": "uint256[]"
        }
      ],
      "stateMutability": "view",
      "type": "function"
    },
    {
      "inputs": [
        {
          "internalType": "bytes32",
          "name": "escrowId",
          "type": "bytes32"
        }
      ],
      "name": "getOneTimeCode",
      "outputs": [
        {
          "internalType": "uint256",
          "name": "",
          "type": "uint256"
        }
      ],
      "stateMutability": "view",
      "type": "function"
    },
    {
      "inputs": [
        {
          "internalType": "string",
          "name": "_transactionId",
          "type": "string"
        }
      ],
      "name": "getTransactionDetails",
      "outputs": [
        {
          "internalType": "address",
          "name": "buyer",
          "type": "address"
        },
        {
          "internalType": "address",
          "name": "seller",
          "type": "address"
        },
        {
          "internalType": "uint256",
          "name": "amount",
          "type": "uint256"
        },
        {
          "internalType": "bool",
          "name": "isCompleted",
          "type": "bool"
        },
        {
          "internalType": "uint256",
          "name": "medicineId",
          "type": "uint256"
        },
        {
          "internalType": "bool",
          "name": "isCodeGenerated",
          "type": "bool"
        }
      ],
      "stateMutability": "view",
      "type": "function"
    },
    {
      "inputs": [
        {
          "internalType": "uint256",
          "name": "",
          "type": "uint256"
        }
      ],
      "name": "medicationToEscrow",
      "outputs": [
        {
          "internalType": "bytes32",
          "name": "",
          "type": "bytes32"
        }
      ],
      "stateMutability": "view",
      "type": "function"
    },
    {
      "inputs": [
        {
          "internalType": "uint256",
          "name": "",
          "type": "uint256"
        }
      ],
      "name": "medications",
      "outputs": [
        {
          "internalType": "uint256",
          "name": "id",
          "type": "uint256"
        },
        {
          "internalType": "string",
          "name": "productName",
          "type": "string"
        },
        {
          "internalType": "string",
          "name": "category",
          "type": "string"
        },
        {
          "internalType": "string",
          "name": "imageUrl",
          "type": "string"
        },
        {
          "internalType": "uint256",
          "name": "pricePerUnit",
          "type": "uint256"
        },
        {
          "internalType": "uint256",
          "name": "stockQuantity",
          "type": "uint256"
        },
        {
          "internalType": "bool",
          "name": "isListed",
          "type": "bool"
        },
        {
          "internalType": "bool",
          "name": "isAvailable",
          "type": "bool"
        },
        {
          "internalType": "uint256",
          "name": "expiryDate",
          "type": "uint256"
        },
        {
          "internalType": "address",
          "name": "owner",
          "type": "address"
        },
        {
          "internalType": "bool",
          "name": "isPrescriptionRequired",
          "type": "bool"
        }
      ],
      "stateMutability": "view",
      "type": "function"
    },
    {
      "inputs": [],
      "name": "nextMedicationId",
      "outputs": [
        {
          "internalType": "uint256",
          "name": "",
          "type": "uint256"
        }
      ],
      "stateMutability": "view",
      "type": "function"
    },
    {
      "inputs": [],
      "name": "platformAdmin",
      "outputs": [
        {
          "internalType": "address",
          "name": "",
          "type": "address"
        }
      ],
      "stateMutability": "view",
      "type": "function"
    },
    {
      "inputs": [],
      "name": "platformFeePercent",
      "outputs": [
        {
          "internalType": "uint256",
          "name": "",
          "type": "uint256"
        }
      ],
      "stateMutability": "view",
      "type": "function"
    },
    {
      "inputs": [
        {
          "internalType": "uint256",
          "name": "_medicationId",
          "type": "uint256"
        },
        {
          "internalType": "uint256",
          "name": "_quantityBought",
          "type": "uint256"
        }
      ],
      "name": "purchaseMedication",
      "outputs": [],
      "stateMutability": "payable",
      "type": "function"
    },
    {
      "inputs": [
        {
          "internalType": "uint256",
          "name": "medicineId",
          "type": "uint256"
        },
        {
          "internalType": "string",
          "name": "reason",
          "type": "string"
        }
      ],
      "name": "raiseDispute",
      "outputs": [],
      "stateMutability": "nonpayable",
      "type": "function"
    },
    {
      "inputs": [
        {
          "internalType": "uint256",
          "name": "_medicationId",
          "type": "uint256"
        },
        {
          "internalType": "uint256",
          "name": "providedOneTimeCode",
          "type": "uint256"
        }
      ],
      "name": "releasePayment",
      "outputs": [],
      "stateMutability": "nonpayable",
      "type": "function"
    },
    {
      "inputs": [
        {
          "internalType": "uint256",
          "name": "medicineId",
          "type": "uint256"
        },
        {
          "internalType": "bool",
          "name": "approveCustomer",
          "type": "bool"
        }
      ],
      "name": "resolveDispute",
      "outputs": [],
      "stateMutability": "nonpayable",
      "type": "function"
    },
    {
      "inputs": [
        {
          "internalType": "uint256",
          "name": "_medicationId",
          "type": "uint256"
        }
      ],
      "name": "toggleListing",
      "outputs": [],
      "stateMutability": "nonpayable",
      "type": "function"
    },
    {
      "inputs": [
        {
          "internalType": "bytes32",
          "name": "",
          "type": "bytes32"
        }
      ],
      "name": "transactions",
      "outputs": [
        {
          "internalType": "address payable",
          "name": "buyer",
          "type": "address"
        },
        {
          "internalType": "address payable",
          "name": "seller",
          "type": "address"
        },
        {
          "internalType": "uint256",
          "name": "amount",
          "type": "uint256"
        },
        {
          "internalType": "bool",
          "name": "isCompleted",
          "type": "bool"
        },
        {
          "internalType": "uint256",
          "name": "medicineId",
          "type": "uint256"
        },
        {
          "internalType": "uint256",
          "name": "oneTimeCode",
          "type": "uint256"
        },
        {
          "internalType": "bool",
          "name": "isCodeGenerated",
          "type": "bool"
        }
      ],
      "stateMutability": "view",
      "type": "function"
    },
    {
      "inputs": [
        {
          "internalType": "uint256",
          "name": "_medicationId",
          "type": "uint256"
        }
      ],
      "name": "unlistMedication",
      "outputs": [],
      "stateMutability": "nonpayable",
      "type": "function"
    },
    {
      "inputs": [
        {
          "internalType": "uint256",
          "name": "_medicationId",
          "type": "uint256"
        },
        {
          "internalType": "bool",
          "name": "_isAvailable",
          "type": "bool"
        }
      ],
      "name": "updateAvailability",
      "outputs": [],
      "stateMutability": "nonpayable",
      "type": "function"
    },
    {
      "inputs": [
        {
          "internalType": "uint256",
          "name": "_newFee",
          "type": "uint256"
        }
      ],
      "name": "updatePlatformFee",
      "outputs": [],
      "stateMutability": "nonpayable",
      "type": "function"
    }
  ],
  "bytecode": "0x60806040526001600055600260015534801561001a57600080fd5b5033600260006101000a81548173ffffffffffffffffffffffffffffffffffffffff021916908373ffffffffffffffffffffffffffffffffffffffff1602179055506137258061006b6000396000f3fe6080604052600436106101405760003560e01c806399a50e78116100b6578063e3a96cbd1161006f578063e3a96cbd14610466578063e4daff8f146104a6578063eba967a9146104e8578063f73e8d3f14610525578063fa8547f61461054e578063ffc9026f1461059557610140565b806399a50e7814610356578063aa0b59881461037f578063bbd839aa146103a8578063c7e6aeea146103e5578063cdcd7fb514610410578063d38f3b681461043b57610140565b80635aef573c116101085780635aef573c1461023d5780635f1af36014610266578063642f2eaf146102a35780637eddaa02146102e65780638c639a851461030257806397e99a801461032d57610140565b8063147e6d7214610145578063205141571461016e5780632864e4a9146101ab57806334b25ee2146101d4578063564a565d146101fd575b600080fd5b34801561015157600080fd5b5061016c60048036038101906101679190612497565b6105d2565b005b34801561017a57600080fd5b50610195600480360381019061019091906124fa565b6106c4565b6040516101a29190612536565b60405180910390f35b3480156101b757600080fd5b506101d260048036038101906101cd9190612589565b6106dc565b005b3480156101e057600080fd5b506101fb60048036038101906101f69190612589565b6107e3565b005b34801561020957600080fd5b50610224600480360381019061021f9190612497565b6109ca565b60405161023494939291906126a9565b60405180910390f35b34801561024957600080fd5b50610264600480360381019061025f919061282a565b610abc565b005b34801561027257600080fd5b5061028d600480360381019061028891906124fa565b610cd5565b60405161029a9190612536565b60405180910390f35b3480156102af57600080fd5b506102ca60048036038101906102c591906124fa565b610cf2565b6040516102dd97969594939291906128a7565b60405180910390f35b61030060048036038101906102fb9190612916565b610d8e565b005b34801561030e57600080fd5b50610317611051565b6040516103249190612536565b60405180910390f35b34801561033957600080fd5b50610354600480360381019061034f9190612916565b611057565b005b34801561036257600080fd5b5061037d60048036038101906103789190612497565b6113ff565b005b34801561038b57600080fd5b506103a660048036038101906103a19190612497565b61154c565b005b3480156103b457600080fd5b506103cf60048036038101906103ca9190612497565b611614565b6040516103dc9190612aca565b60405180910390f35b3480156103f157600080fd5b506103fa6118c7565b6040516104079190612536565b60405180910390f35b34801561041c57600080fd5b506104256118cd565b6040516104329190612aec565b60405180910390f35b34801561044757600080fd5b506104506118f3565b60405161045d9190612bb6565b60405180910390f35b34801561047257600080fd5b5061048d60048036038101906104889190612497565b61194b565b60405161049d94939291906126a9565b60405180910390f35b3480156104b257600080fd5b506104cd60048036038101906104c89190612bd8565b611b20565b6040516104df96959493929190612c21565b60405180910390f35b3480156104f457600080fd5b5061050f600480360381019061050a9190612497565b611bfa565b60405161051c9190612c91565b60405180910390f35b34801561053157600080fd5b5061054c60048036038101906105479190612cac565b611c12565b005b34801561055a57600080fd5b5061057560048036038101906105709190612497565b611e83565b60405161058c9b9a99989796959493929190612da2565b60405180910390f35b3480156105a157600080fd5b506105bc60048036038101906105b79190612497565b6120bc565b6040516105c99190612536565b60405180910390f35b600260009054906101000a900473ffffffffffffffffffffffffffffffffffffffff1673ffffffffffffffffffffffffffffffffffffffff163373ffffffffffffffffffffffffffffffffffffffff1614610659576040517f344fd58600000000000000000000000000000000000000000000000000000000815260040160405180910390fd5b60006003600083815260200190815260200160002060060160006101000a81548160ff021916908315150217905550807f921cb32fcf5251b14bbd7b78c7d627167ad72577e472c20484ba77369a2303a260006040516106b99190612e62565b60405180910390a250565b60076020528060005260406000206000915090505481565b813373ffffffffffffffffffffffffffffffffffffffff166003600083815260200190815260200160002060080160009054906101000a900473ffffffffffffffffffffffffffffffffffffffff1673ffffffffffffffffffffffffffffffffffffffff1614610778576040517f344fd58600000000000000000000000000000000000000000000000000000000815260040160405180910390fd5b816003600085815260200190815260200160002060060160016101000a81548160ff021916908315150217905550827f5e3193de446cac4a5d8965f788381ef7b1841a57c8235726b63fd5e6b5eaa4f4836040516107d69190612e62565b60405180910390a2505050565b600260009054906101000a900473ffffffffffffffffffffffffffffffffffffffff1673ffffffffffffffffffffffffffffffffffffffff163373ffffffffffffffffffffffffffffffffffffffff161461086a576040517f344fd58600000000000000000000000000000000000000000000000000000000815260040160405180910390fd5b6000600560008481526020019081526020016000209050600073ffffffffffffffffffffffffffffffffffffffff168160000160009054906101000a900473ffffffffffffffffffffffffffffffffffffffff1673ffffffffffffffffffffffffffffffffffffffff160361090b576040517f4250af0800000000000000000000000000000000000000000000000000000000815260040160405180910390fd5b8060020160009054906101000a900460ff1615610954576040517f34819f9000000000000000000000000000000000000000000000000000000000815260040160405180910390fd5b60018160020160006101000a81548160ff021916908315150217905550818160020160016101000a81548160ff021916908315150217905550827f5a87909bff68caaaaf0b3fd9c74eeccc928832f879315e5c6fb7a73612f26c0c836040516109bd9190612e62565b60405180910390a2505050565b60056020528060005260406000206000915090508060000160009054906101000a900473ffffffffffffffffffffffffffffffffffffffff1690806001018054610a1390612eac565b80601f0160208091040260200160405190810160405280929190818152602001828054610a3f90612eac565b8015610a8c5780601f10610a6157610100808354040283529160200191610a8c565b820191906000526020600020905b815481529060010190602001808311610a6f57829003601f168201915b5050505050908060020160009054906101000a900460ff16908060020160019054906101000a900460ff16905084565b60008203610af6576040517f0471725e00000000000000000000000000000000000000000000000000000000815260040160405180910390fd5b600073ffffffffffffffffffffffffffffffffffffffff166005600084815260200190815260200160002060000160009054906101000a900473ffffffffffffffffffffffffffffffffffffffff1673ffffffffffffffffffffffffffffffffffffffff1614610b92576040517ff42cc34f00000000000000000000000000000000000000000000000000000000815260040160405180910390fd5b60405180608001604052803373ffffffffffffffffffffffffffffffffffffffff168152602001828152602001600015158152602001600015158152506005600084815260200190815260200160002060008201518160000160006101000a81548173ffffffffffffffffffffffffffffffffffffffff021916908373ffffffffffffffffffffffffffffffffffffffff1602179055506020820151816001019081610c3e9190613089565b5060408201518160020160006101000a81548160ff02191690831515021790555060608201518160020160016101000a81548160ff0219169083151502179055509050503373ffffffffffffffffffffffffffffffffffffffff16827f1b84372106d77c6daea0dda35bbc0229d10a83f58ec89909288492519368234183604051610cc9919061315b565b60405180910390a35050565b600060076000838152602001908152602001600020549050919050565b60046020528060005260406000206000915090508060000160009054906101000a900473ffffffffffffffffffffffffffffffffffffffff16908060010160009054906101000a900473ffffffffffffffffffffffffffffffffffffffff16908060020154908060030160009054906101000a900460ff16908060040154908060050154908060060160009054906101000a900460ff16905087565b60006003600084815260200190815260200160002090508060060160009054906101000a900460ff16610ded576040517f43de0f7000000000000000000000000000000000000000000000000000000000815260040160405180910390fd5b8060060160019054906101000a900460ff16610e35576040517f456f602200000000000000000000000000000000000000000000000000000000815260040160405180910390fd5b8181600501541015610e73576040517f0f00e02100000000000000000000000000000000000000000000000000000000815260040160405180910390fd5b42816007015411610eb0576040517f054b0d0700000000000000000000000000000000000000000000000000000000815260040160405180910390fd5b6000828260040154610ec291906131ac565b9050803414610efd576040517f6992e1ff00000000000000000000000000000000000000000000000000000000815260040160405180910390fd5b60008442604051602001610f129291906132b2565b60405160208183030381529060405290506000610f55828560080160009054906101000a900473ffffffffffffffffffffffffffffffffffffffff1688866120e0565b905084846005016000828254610f6b91906132f4565b925050819055506000846005015403610fb95760008460060160006101000a81548160ff02191690831515021790555060008460060160016101000a81548160ff0219169083151502179055505b806006600088815260200190815260200160002081905550857f93794338202df3dfdc0bcbf4a4bf421c6de27553c8b58d587e52b5d1fff5ba5333878660405161100593929190613328565b60405180910390a2857fded2719496a101a5f3d20592f9d5df0ced94f38eb17845a40893f4b23f9361678233866040516110419392919061335f565b60405180910390a2505050505050565b60015481565b60006006600084815260200190815260200160002054905060006004600083815260200190815260200160002090503373ffffffffffffffffffffffffffffffffffffffff168160000160009054906101000a900473ffffffffffffffffffffffffffffffffffffffff1673ffffffffffffffffffffffffffffffffffffffff161461110f576040517f238b4f8600000000000000000000000000000000000000000000000000000000815260040160405180910390fd5b8060030160009054906101000a900460ff1615611158576040517fcd8166e300000000000000000000000000000000000000000000000000000000815260040160405180910390fd5b6000816002015403611196576040517f453d72b900000000000000000000000000000000000000000000000000000000815260040160405180910390fd5b600760008381526020019081526020016000205483146111e2576040517fa9a35c1300000000000000000000000000000000000000000000000000000000815260040160405180910390fd5b60018160030160006101000a81548160ff02191690831515021790555060008160020154905060008260020181905550600060646001548361122491906131ac565b61122e91906133c5565b90506000818361123e91906132f4565b9050600260009054906101000a900473ffffffffffffffffffffffffffffffffffffffff1673ffffffffffffffffffffffffffffffffffffffff166108fc839081150290604051600060405180830381858888f193505050501580156112a8573d6000803e3d6000fd5b5060008460010160009054906101000a900473ffffffffffffffffffffffffffffffffffffffff1673ffffffffffffffffffffffffffffffffffffffff16826040516112f390613427565b60006040518083038185875af1925050503d8060008114611330576040519150601f19603f3d011682016040523d82523d6000602084013e611335565b606091505b5050905080611370576040517ff499da2000000000000000000000000000000000000000000000000000000000815260040160405180910390fd5b7f8895f1b42dba89b953fe6fe74f5854edd2c96c7b2ac3123a216d9cca241225c6868660000160009054906101000a900473ffffffffffffffffffffffffffffffffffffffff168760010160009054906101000a900473ffffffffffffffffffffffffffffffffffffffff16876040516113ed9493929190613491565b60405180910390a15050505050505050565b803373ffffffffffffffffffffffffffffffffffffffff166003600083815260200190815260200160002060080160009054906101000a900473ffffffffffffffffffffffffffffffffffffffff1673ffffffffffffffffffffffffffffffffffffffff161461149b576040517f344fd58600000000000000000000000000000000000000000000000000000000815260040160405180910390fd5b6003600083815260200190815260200160002060060160009054906101000a900460ff16156003600084815260200190815260200160002060060160006101000a81548160ff021916908315150217905550817f921cb32fcf5251b14bbd7b78c7d627167ad72577e472c20484ba77369a2303a26003600085815260200190815260200160002060060160009054906101000a900460ff166040516115409190612e62565b60405180910390a25050565b600260009054906101000a900473ffffffffffffffffffffffffffffffffffffffff1673ffffffffffffffffffffffffffffffffffffffff163373ffffffffffffffffffffffffffffffffffffffff16146115d3576040517f344fd58600000000000000000000000000000000000000000000000000000000815260040160405180910390fd5b806001819055507f45610d581145924dd7090a5017e5f2b1d6f42213bb2e95707ff86846bbfcb1ca816040516116099190612536565b60405180910390a150565b61161c6123d7565b60036000838152602001908152602001600020604051806101600160405290816000820154815260200160018201805461165590612eac565b80601f016020809104026020016040519081016040528092919081815260200182805461168190612eac565b80156116ce5780601f106116a3576101008083540402835291602001916116ce565b820191906000526020600020905b8154815290600101906020018083116116b157829003601f168201915b505050505081526020016002820180546116e790612eac565b80601f016020809104026020016040519081016040528092919081815260200182805461171390612eac565b80156117605780601f1061173557610100808354040283529160200191611760565b820191906000526020600020905b81548152906001019060200180831161174357829003601f168201915b5050505050815260200160038201805461177990612eac565b80601f01602080910402602001604051908101604052809291908181526020018280546117a590612eac565b80156117f25780601f106117c7576101008083540402835291602001916117f2565b820191906000526020600020905b8154815290600101906020018083116117d557829003601f168201915b5050505050815260200160048201548152602001600582015481526020016006820160009054906101000a900460ff161515151581526020016006820160019054906101000a900460ff16151515158152602001600782015481526020016008820160009054906101000a900473ffffffffffffffffffffffffffffffffffffffff1673ffffffffffffffffffffffffffffffffffffffff1673ffffffffffffffffffffffffffffffffffffffff1681526020016008820160149054906101000a900460ff1615151515815250509050919050565b60005481565b600260009054906101000a900473ffffffffffffffffffffffffffffffffffffffff1681565b6060600880548060200260200160405190810160405280929190818152602001828054801561194157602002820191906000526020600020905b81548152602001906001019080831161192d575b5050505050905090565b600060606000806000600560008781526020019081526020016000206040518060800160405290816000820160009054906101000a900473ffffffffffffffffffffffffffffffffffffffff1673ffffffffffffffffffffffffffffffffffffffff1673ffffffffffffffffffffffffffffffffffffffff1681526020016001820180546119d890612eac565b80601f0160208091040260200160405190810160405280929190818152602001828054611a0490612eac565b8015611a515780601f10611a2657610100808354040283529160200191611a51565b820191906000526020600020905b815481529060010190602001808311611a3457829003601f168201915b505050505081526020016002820160009054906101000a900460ff161515151581526020016002820160019054906101000a900460ff1615151515815250509050600073ffffffffffffffffffffffffffffffffffffffff16816000015173ffffffffffffffffffffffffffffffffffffffff1603611afc576040517f4250af0800000000000000000000000000000000000000000000000000000000815260040160405180910390fd5b80600001518160200151826040015183606001519450945094509450509193509193565b600080600080600080600087604051602001611b3c9190613507565b60405160208183030381529060405280519060200120905060006004600083815260200190815260200160002090508060000160009054906101000a900473ffffffffffffffffffffffffffffffffffffffff168160010160009054906101000a900473ffffffffffffffffffffffffffffffffffffffff1682600201548360030160009054906101000a900460ff1684600401548560060160009054906101000a900460ff16975097509750975097509750505091939550919395565b60066020528060005260406000206000915090505481565b60008303611c4c576040517f0f00e02100000000000000000000000000000000000000000000000000000000815260040160405180910390fd5b60405180610160016040528060005481526020018881526020018781526020018681526020018581526020018481526020016001151581526020016001151581526020018381526020013373ffffffffffffffffffffffffffffffffffffffff1681526020018215158152506003600080548152602001908152602001600020600082015181600001556020820151816001019081611ceb9190613089565b506040820151816002019081611d019190613089565b506060820151816003019081611d179190613089565b506080820151816004015560a0820151816005015560c08201518160060160006101000a81548160ff02191690831515021790555060e08201518160060160016101000a81548160ff02191690831515021790555061010082015181600701556101208201518160080160006101000a81548173ffffffffffffffffffffffffffffffffffffffff021916908373ffffffffffffffffffffffffffffffffffffffff1602179055506101408201518160080160146101000a81548160ff021916908315150217905550905050600860005490806001815401808255809150506001900390600052602060002001600090919091909150553373ffffffffffffffffffffffffffffffffffffffff166000547f1fed8cb736d256f1f097dee6bb5a510edc1012bd7a232db37e8f8a2ea4dace02898787604051611e5b9392919061351e565b60405180910390a3600080815480929190611e759061355c565b919050555050505050505050565b6003602052806000526040600020600091509050806000015490806001018054611eac90612eac565b80601f0160208091040260200160405190810160405280929190818152602001828054611ed890612eac565b8015611f255780601f10611efa57610100808354040283529160200191611f25565b820191906000526020600020905b815481529060010190602001808311611f0857829003601f168201915b505050505090806002018054611f3a90612eac565b80601f0160208091040260200160405190810160405280929190818152602001828054611f6690612eac565b8015611fb35780601f10611f8857610100808354040283529160200191611fb3565b820191906000526020600020905b815481529060010190602001808311611f9657829003601f168201915b505050505090806003018054611fc890612eac565b80601f0160208091040260200160405190810160405280929190818152602001828054611ff490612eac565b80156120415780601f1061201657610100808354040283529160200191612041565b820191906000526020600020905b81548152906001019060200180831161202457829003601f168201915b5050505050908060040154908060050154908060060160009054906101000a900460ff16908060060160019054906101000a900460ff16908060070154908060080160009054906101000a900473ffffffffffffffffffffffffffffffffffffffff16908060080160149054906101000a900460ff1690508b565b600881815481106120cc57600080fd5b906000526020600020016000915090505481565b600080856040516020016120f49190613507565b604051602081830303815290604052805190602001209050600073ffffffffffffffffffffffffffffffffffffffff166004600083815260200190815260200160002060000160009054906101000a900473ffffffffffffffffffffffffffffffffffffffff1673ffffffffffffffffffffffffffffffffffffffff16146121a8576040517f65918e3200000000000000000000000000000000000000000000000000000000815260040160405180910390fd5b60006121b2612381565b90506040518060e001604052803373ffffffffffffffffffffffffffffffffffffffff1681526020018773ffffffffffffffffffffffffffffffffffffffff168152602001858152602001600015158152602001868152602001828152602001600115158152506004600084815260200190815260200160002060008201518160000160006101000a81548173ffffffffffffffffffffffffffffffffffffffff021916908373ffffffffffffffffffffffffffffffffffffffff16021790555060208201518160010160006101000a81548173ffffffffffffffffffffffffffffffffffffffff021916908373ffffffffffffffffffffffffffffffffffffffff1602179055506040820151816002015560608201518160030160006101000a81548160ff0219169083151502179055506080820151816004015560a0820151816005015560c08201518160060160006101000a81548160ff0219169083151502179055509050508060076000848152602001908152602001600020819055507ff961d737cbe74505725c1be3f1ef74db923c3190fc8f9cbbbda1821da86299e082338887898660405161236c969594939291906135a4565b60405180910390a18192505050949350505050565b6000804244336040516020016123999392919061364d565b6040516020818303038152906040528051906020012060001c9050620186a0620dbba0826123c7919061368a565b6123d191906136bb565b91505090565b60405180610160016040528060008152602001606081526020016060815260200160608152602001600081526020016000815260200160001515815260200160001515815260200160008152602001600073ffffffffffffffffffffffffffffffffffffffff1681526020016000151581525090565b6000604051905090565b600080fd5b600080fd5b6000819050919050565b61247481612461565b811461247f57600080fd5b50565b6000813590506124918161246b565b92915050565b6000602082840312156124ad576124ac612457565b5b60006124bb84828501612482565b91505092915050565b6000819050919050565b6124d7816124c4565b81146124e257600080fd5b50565b6000813590506124f4816124ce565b92915050565b6000602082840312156125105761250f612457565b5b600061251e848285016124e5565b91505092915050565b61253081612461565b82525050565b600060208201905061254b6000830184612527565b92915050565b60008115159050919050565b61256681612551565b811461257157600080fd5b50565b6000813590506125838161255d565b92915050565b600080604083850312156125a05761259f612457565b5b60006125ae85828601612482565b92505060206125bf85828601612574565b9150509250929050565b600073ffffffffffffffffffffffffffffffffffffffff82169050919050565b60006125f4826125c9565b9050919050565b612604816125e9565b82525050565b600081519050919050565b600082825260208201905092915050565b60005b83811015612644578082015181840152602081019050612629565b60008484015250505050565b6000601f19601f8301169050919050565b600061266c8261260a565b6126768185612615565b9350612686818560208601612626565b61268f81612650565b840191505092915050565b6126a381612551565b82525050565b60006080820190506126be60008301876125fb565b81810360208301526126d08186612661565b90506126df604083018561269a565b6126ec606083018461269a565b95945050505050565b600080fd5b600080fd5b7f4e487b7100000000000000000000000000000000000000000000000000000000600052604160045260246000fd5b61273782612650565b810181811067ffffffffffffffff82111715612756576127556126ff565b5b80604052505050565b600061276961244d565b9050612775828261272e565b919050565b600067ffffffffffffffff821115612795576127946126ff565b5b61279e82612650565b9050602081019050919050565b82818337600083830152505050565b60006127cd6127c88461277a565b61275f565b9050828152602081018484840111156127e9576127e86126fa565b5b6127f48482856127ab565b509392505050565b600082601f830112612811576128106126f5565b5b81356128218482602086016127ba565b91505092915050565b6000806040838503121561284157612840612457565b5b600061284f85828601612482565b925050602083013567ffffffffffffffff8111156128705761286f61245c565b5b61287c858286016127fc565b9150509250929050565b6000612891826125c9565b9050919050565b6128a181612886565b82525050565b600060e0820190506128bc600083018a612898565b6128c96020830189612898565b6128d66040830188612527565b6128e3606083018761269a565b6128f06080830186612527565b6128fd60a0830185612527565b61290a60c083018461269a565b98975050505050505050565b6000806040838503121561292d5761292c612457565b5b600061293b85828601612482565b925050602061294c85828601612482565b9150509250929050565b61295f81612461565b82525050565b600082825260208201905092915050565b60006129818261260a565b61298b8185612965565b935061299b818560208601612626565b6129a481612650565b840191505092915050565b6129b881612551565b82525050565b6129c7816125e9565b82525050565b6000610160830160008301516129e66000860182612956565b50602083015184820360208601526129fe8282612976565b91505060408301518482036040860152612a188282612976565b91505060608301518482036060860152612a328282612976565b9150506080830151612a476080860182612956565b5060a0830151612a5a60a0860182612956565b5060c0830151612a6d60c08601826129af565b5060e0830151612a8060e08601826129af565b50610100830151612a95610100860182612956565b50610120830151612aaa6101208601826129be565b50610140830151612abf6101408601826129af565b508091505092915050565b60006020820190508181036000830152612ae481846129cd565b905092915050565b6000602082019050612b0160008301846125fb565b92915050565b600081519050919050565b600082825260208201905092915050565b6000819050602082019050919050565b6000612b3f8383612956565b60208301905092915050565b6000602082019050919050565b6000612b6382612b07565b612b6d8185612b12565b9350612b7883612b23565b8060005b83811015612ba9578151612b908882612b33565b9750612b9b83612b4b565b925050600181019050612b7c565b5085935050505092915050565b60006020820190508181036000830152612bd08184612b58565b905092915050565b600060208284031215612bee57612bed612457565b5b600082013567ffffffffffffffff811115612c0c57612c0b61245c565b5b612c18848285016127fc565b91505092915050565b600060c082019050612c3660008301896125fb565b612c4360208301886125fb565b612c506040830187612527565b612c5d606083018661269a565b612c6a6080830185612527565b612c7760a083018461269a565b979650505050505050565b612c8b816124c4565b82525050565b6000602082019050612ca66000830184612c82565b92915050565b600080600080600080600060e0888a031215612ccb57612cca612457565b5b600088013567ffffffffffffffff811115612ce957612ce861245c565b5b612cf58a828b016127fc565b975050602088013567ffffffffffffffff811115612d1657612d1561245c565b5b612d228a828b016127fc565b965050604088013567ffffffffffffffff811115612d4357612d4261245c565b5b612d4f8a828b016127fc565b9550506060612d608a828b01612482565b9450506080612d718a828b01612482565b93505060a0612d828a828b01612482565b92505060c0612d938a828b01612574565b91505092959891949750929550565b600061016082019050612db8600083018e612527565b8181036020830152612dca818d612661565b90508181036040830152612dde818c612661565b90508181036060830152612df2818b612661565b9050612e01608083018a612527565b612e0e60a0830189612527565b612e1b60c083018861269a565b612e2860e083018761269a565b612e36610100830186612527565b612e446101208301856125fb565b612e5261014083018461269a565b9c9b505050505050505050505050565b6000602082019050612e77600083018461269a565b92915050565b7f4e487b7100000000000000000000000000000000000000000000000000000000600052602260045260246000fd5b60006002820490506001821680612ec457607f821691505b602082108103612ed757612ed6612e7d565b5b50919050565b60008190508160005260206000209050919050565b60006020601f8301049050919050565b600082821b905092915050565b600060088302612f3f7fffffffffffffffffffffffffffffffffffffffffffffffffffffffffffffffff82612f02565b612f498683612f02565b95508019841693508086168417925050509392505050565b6000819050919050565b6000612f86612f81612f7c84612461565b612f61565b612461565b9050919050565b6000819050919050565b612fa083612f6b565b612fb4612fac82612f8d565b848454612f0f565b825550505050565b600090565b612fc9612fbc565b612fd4818484612f97565b505050565b5b81811015612ff857612fed600082612fc1565b600181019050612fda565b5050565b601f82111561303d5761300e81612edd565b61301784612ef2565b81016020851015613026578190505b61303a61303285612ef2565b830182612fd9565b50505b505050565b600082821c905092915050565b600061306060001984600802613042565b1980831691505092915050565b6000613079838361304f565b9150826002028217905092915050565b6130928261260a565b67ffffffffffffffff8111156130ab576130aa6126ff565b5b6130b58254612eac565b6130c0828285612ffc565b600060209050601f8311600181146130f357600084156130e1578287015190505b6130eb858261306d565b865550613153565b601f19841661310186612edd565b60005b8281101561312957848901518255600182019150602085019450602081019050613104565b868310156131465784890151613142601f89168261304f565b8355505b6001600288020188555050505b505050505050565b600060208201905081810360008301526131758184612661565b905092915050565b7f4e487b7100000000000000000000000000000000000000000000000000000000600052601160045260246000fd5b60006131b782612461565b91506131c283612461565b92508282026131d081612461565b915082820484148315176131e7576131e661317d565b5b5092915050565b600081905092915050565b7f4d45445f00000000000000000000000000000000000000000000000000000000600082015250565b600061322f6004836131ee565b915061323a826131f9565b600482019050919050565b6000819050919050565b61326061325b82612461565b613245565b82525050565b7f5f00000000000000000000000000000000000000000000000000000000000000600082015250565b600061329c6001836131ee565b91506132a782613266565b600182019050919050565b60006132bd82613222565b91506132c9828561324f565b6020820191506132d88261328f565b91506132e4828461324f565b6020820191508190509392505050565b60006132ff82612461565b915061330a83612461565b92508282039050818111156133225761332161317d565b5b92915050565b600060608201905061333d60008301866125fb565b61334a6020830185612527565b6133576040830184612527565b949350505050565b60006060820190506133746000830186612c82565b61338160208301856125fb565b61338e6040830184612527565b949350505050565b7f4e487b7100000000000000000000000000000000000000000000000000000000600052601260045260246000fd5b60006133d082612461565b91506133db83612461565b9250826133eb576133ea613396565b5b828204905092915050565b600081905092915050565b50565b60006134116000836133f6565b915061341c82613401565b600082019050919050565b600061343282613404565b9150819050919050565b600061345761345261344d846125c9565b612f61565b6125c9565b9050919050565b60006134698261343c565b9050919050565b600061347b8261345e565b9050919050565b61348b81613470565b82525050565b60006080820190506134a66000830187612c82565b6134b36020830186613482565b6134c06040830185613482565b6134cd6060830184612527565b95945050505050565b60006134e18261260a565b6134eb81856131ee565b93506134fb818560208601612626565b80840191505092915050565b600061351382846134d6565b915081905092915050565b600060608201905081810360008301526135388186612661565b90506135476020830185612527565b6135546040830184612527565b949350505050565b600061356782612461565b91507fffffffffffffffffffffffffffffffffffffffffffffffffffffffffffffffff82036135995761359861317d565b5b600182019050919050565b600060c0820190506135b96000830189612c82565b6135c660208301886125fb565b6135d36040830187613482565b6135e06060830186612527565b6135ed6080830185612527565b6135fa60a0830184612527565b979650505050505050565b60008160601b9050919050565b600061361d82613605565b9050919050565b600061362f82613612565b9050919050565b613647613642826125e9565b613624565b82525050565b6000613659828661324f565b602082019150613669828561324f565b6020820191506136798284613636565b601482019150819050949350505050565b600061369582612461565b91506136a083612461565b9250826136b0576136af613396565b5b828206905092915050565b60006136c682612461565b91506136d183612461565b92508282019050808211156136e9576136e861317d565b5b9291505056fea2646970667358221220de490dc05fde039df03439db5d0a74ee337e85cd07e6fc4106e4181f9bd80e7f64736f6c63430008180033",
  "linkReferences": {},
  "deployedLinkReferences": {}
}