{
  "_format": "hh-sol-artifact-1",
  "contractName": "PrescriptionManagement",
  "sourceName": "contracts/PrescriptionManagement.sol",
  "abi": [
    {
      "inputs": [
        {
          "internalType": "address",
          "name": "_userManagementAddress",
          "type": "address"
        }
      ],
      "stateMutability": "nonpayable",
      "type": "constructor"
    },
    {
      "inputs": [],
      "name": "AddressZeroDetected",
      "type": "error"
    },
    {
      "inputs": [],
      "name": "DoctorNotVerified",
      "type": "error"
    },
    {
      "inputs": [],
      "name": "InvalidPrescription",
      "type": "error"
    },
    {
      "inputs": [],
      "name": "InvalidPrescriptionCode",
      "type": "error"
    },
    {
      "inputs": [],
      "name": "NoAccessToPrescription",
      "type": "error"
    },
    {
      "inputs": [],
      "name": "NotAuthorizedDoctor",
      "type": "error"
    },
    {
      "inputs": [],
      "name": "NotOwnerOfPrescriptionOrAllowedToView",
      "type": "error"
    },
    {
      "inputs": [
        {
          "internalType": "address",
          "name": "owner",
          "type": "address"
        }
      ],
      "name": "OwnableInvalidOwner",
      "type": "error"
    },
    {
      "inputs": [
        {
          "internalType": "address",
          "name": "account",
          "type": "address"
        }
      ],
      "name": "OwnableUnauthorizedAccount",
      "type": "error"
    },
    {
      "inputs": [],
      "name": "PharmacyNotVerified",
      "type": "error"
    },
    {
      "inputs": [],
      "name": "PrescriptionAlreadyUsed",
      "type": "error"
    },
    {
      "anonymous": false,
      "inputs": [
        {
          "indexed": true,
          "internalType": "address",
          "name": "patient",
          "type": "address"
        },
        {
          "indexed": true,
          "internalType": "address",
          "name": "pharmacy",
          "type": "address"
        }
      ],
      "name": "AccessGranted",
      "type": "event"
    },
    {
      "anonymous": false,
      "inputs": [
        {
          "indexed": true,
          "internalType": "address",
          "name": "previousOwner",
          "type": "address"
        },
        {
          "indexed": true,
          "internalType": "address",
          "name": "newOwner",
          "type": "address"
        }
      ],
      "name": "OwnershipTransferred",
      "type": "event"
    },
    {
      "anonymous": false,
      "inputs": [
        {
          "indexed": true,
          "internalType": "address",
          "name": "patient",
          "type": "address"
        },
        {
          "indexed": true,
          "internalType": "address",
          "name": "doctor",
          "type": "address"
        },
        {
          "indexed": false,
          "internalType": "string",
          "name": "prescription",
          "type": "string"
        }
      ],
      "name": "PrescriptionCreated",
      "type": "event"
    },
    {
      "anonymous": false,
      "inputs": [
        {
          "indexed": true,
          "internalType": "address",
          "name": "patient",
          "type": "address"
        },
        {
          "indexed": false,
          "internalType": "string",
          "name": "prescription",
          "type": "string"
        }
      ],
      "name": "PrescriptionUsed",
      "type": "event"
    },
    {
      "inputs": [
        {
          "internalType": "address",
          "name": "_patient",
          "type": "address"
        },
        {
          "internalType": "string",
          "name": "_prescriptionHash",
          "type": "string"
        }
      ],
      "name": "addPrescription",
      "outputs": [],
      "stateMutability": "nonpayable",
      "type": "function"
    },
    {
      "inputs": [
        {
          "internalType": "string",
          "name": "_prescriptionHash",
          "type": "string"
        },
        {
          "internalType": "address",
          "name": "_patient",
          "type": "address"
        }
      ],
      "name": "getPrescription",
      "outputs": [
        {
          "components": [
            {
              "internalType": "address",
              "name": "patient",
              "type": "address"
            },
            {
              "internalType": "address",
              "name": "doctor",
              "type": "address"
            },
            {
              "internalType": "string",
              "name": "prescription",
              "type": "string"
            },
            {
              "internalType": "bool",
              "name": "isValidated",
              "type": "bool"
            },
            {
              "internalType": "bool",
              "name": "isUsed",
              "type": "bool"
            }
          ],
          "internalType": "struct PrescriptionManagement.Prescription",
          "name": "",
          "type": "tuple"
        }
      ],
      "stateMutability": "view",
      "type": "function"
    },
    {
      "inputs": [
        {
          "internalType": "address",
          "name": "_pharmacy",
          "type": "address"
        }
      ],
      "name": "grantPharmacyAccess",
      "outputs": [],
      "stateMutability": "nonpayable",
      "type": "function"
    },
    {
      "inputs": [],
      "name": "owner",
      "outputs": [
        {
          "internalType": "address",
          "name": "",
          "type": "address"
        }
      ],
      "stateMutability": "view",
      "type": "function"
    },
    {
      "inputs": [],
      "name": "renounceOwnership",
      "outputs": [],
      "stateMutability": "nonpayable",
      "type": "function"
    },
    {
      "inputs": [
        {
          "internalType": "address",
          "name": "newOwner",
          "type": "address"
        }
      ],
      "name": "transferOwnership",
      "outputs": [],
      "stateMutability": "nonpayable",
      "type": "function"
    },
    {
      "inputs": [],
      "name": "userManagement",
      "outputs": [
        {
          "internalType": "contract IUserManagement",
          "name": "",
          "type": "address"
        }
      ],
      "stateMutability": "view",
      "type": "function"
    },
    {
      "inputs": [
        {
          "internalType": "string",
          "name": "_prescriptionHash",
          "type": "string"
        },
        {
          "internalType": "address",
          "name": "_patient",
          "type": "address"
        }
      ],
      "name": "validateAndUsePrescription",
      "outputs": [],
      "stateMutability": "nonpayable",
      "type": "function"
    }
  ],
  "bytecode": "0x60806040523480156200001157600080fd5b5060405162001c7038038062001c70833981810160405281019062000037919062000235565b33600073ffffffffffffffffffffffffffffffffffffffff168173ffffffffffffffffffffffffffffffffffffffff1603620000ad5760006040517f1e4fbdf7000000000000000000000000000000000000000000000000000000008152600401620000a4919062000278565b60405180910390fd5b620000be816200010760201b60201c565b5080600160006101000a81548173ffffffffffffffffffffffffffffffffffffffff021916908373ffffffffffffffffffffffffffffffffffffffff1602179055505062000295565b60008060009054906101000a900473ffffffffffffffffffffffffffffffffffffffff169050816000806101000a81548173ffffffffffffffffffffffffffffffffffffffff021916908373ffffffffffffffffffffffffffffffffffffffff1602179055508173ffffffffffffffffffffffffffffffffffffffff168173ffffffffffffffffffffffffffffffffffffffff167f8be0079c531659141344cd1fd0a4f28419497f9722a3daafe3b4186f6b6457e060405160405180910390a35050565b600080fd5b600073ffffffffffffffffffffffffffffffffffffffff82169050919050565b6000620001fd82620001d0565b9050919050565b6200020f81620001f0565b81146200021b57600080fd5b50565b6000815190506200022f8162000204565b92915050565b6000602082840312156200024e576200024d620001cb565b5b60006200025e848285016200021e565b91505092915050565b6200027281620001f0565b82525050565b60006020820190506200028f600083018462000267565b92915050565b6119cb80620002a56000396000f3fe608060405234801561001057600080fd5b50600436106100885760003560e01c80638da5cb5b1161005b5780638da5cb5b146100ed578063a3e12bc01461010b578063b09fc06e14610127578063f2fde38b1461015757610088565b80633952e4561461008d5780636a767f50146100a9578063715018a6146100c757806381151711146100d1575b600080fd5b6100a760048036038101906100a2919061110e565b610173565b005b6100b161043f565b6040516100be919061119a565b60405180910390f35b6100cf610465565b005b6100eb60048036038101906100e691906112fb565b610479565b005b6100f5610643565b6040516101029190611366565b60405180910390f35b61012560048036038101906101209190611381565b61066c565b005b610141600480360381019061013c91906112fb565b610acf565b60405161014e91906114fc565b60405180910390f35b610171600480360381019061016c919061110e565b610dfb565b005b61017c81610e81565b6000600160009054906101000a900473ffffffffffffffffffffffffffffffffffffffff1673ffffffffffffffffffffffffffffffffffffffff166344276733836040518263ffffffff1660e01b81526004016101d99190611366565b602060405180830381865afa1580156101f6573d6000803e3d6000fd5b505050506040513d601f19601f8201168201806040525081019061021a9190611543565b9050600260038111156102305761022f611570565b5b81600381111561024357610242611570565b5b1461027a576040517ff7331ad200000000000000000000000000000000000000000000000000000000815260040160405180910390fd5b600160009054906101000a900473ffffffffffffffffffffffffffffffffffffffff1673ffffffffffffffffffffffffffffffffffffffff1663cbe07ef6836040518263ffffffff1660e01b81526004016102d59190611366565b602060405180830381865afa1580156102f2573d6000803e3d6000fd5b505050506040513d601f19601f8201168201806040525081019061031691906115cb565b61034c576040517ff832458500000000000000000000000000000000000000000000000000000000815260040160405180910390fd5b6001600460003373ffffffffffffffffffffffffffffffffffffffff1673ffffffffffffffffffffffffffffffffffffffff16815260200190815260200160002060008473ffffffffffffffffffffffffffffffffffffffff1673ffffffffffffffffffffffffffffffffffffffff16815260200190815260200160002060006101000a81548160ff0219169083151502179055508173ffffffffffffffffffffffffffffffffffffffff163373ffffffffffffffffffffffffffffffffffffffff167f9f520b3bfc56d06f7065d10b4683b3f57ac8895d5026cd176dee95ce1454cb8d60405160405180910390a35050565b600160009054906101000a900473ffffffffffffffffffffffffffffffffffffffff1681565b61046d610eea565b6104776000610f71565b565b61048233610e81565b61048b81610e81565b600460008273ffffffffffffffffffffffffffffffffffffffff1673ffffffffffffffffffffffffffffffffffffffff16815260200190815260200160002060003373ffffffffffffffffffffffffffffffffffffffff1673ffffffffffffffffffffffffffffffffffffffff16815260200190815260200160002060009054906101000a900460ff1661054b576040517ff7331ad200000000000000000000000000000000000000000000000000000000815260040160405180910390fd5b600060038360405161055d9190611634565b908152602001604051809103902090508060030160019054906101000a900460ff16156105b6576040517f7b3c95d500000000000000000000000000000000000000000000000000000000815260040160405180910390fd5b60018160030160006101000a81548160ff02191690831515021790555060018160030160016101000a81548160ff0219169083151502179055508173ffffffffffffffffffffffffffffffffffffffff167f58cade94dc7445716645a8384817b3b798b627b1de36a0f29c0068ad1bb415ea846040516106369190611695565b60405180910390a2505050565b60008060009054906101000a900473ffffffffffffffffffffffffffffffffffffffff16905090565b61067533610e81565b61067e82610e81565b60008151148061068f5750602d8151105b156106c6576040517f8140587700000000000000000000000000000000000000000000000000000000815260040160405180910390fd5b6000600160009054906101000a900473ffffffffffffffffffffffffffffffffffffffff1673ffffffffffffffffffffffffffffffffffffffff166344276733336040518263ffffffff1660e01b81526004016107239190611366565b602060405180830381865afa158015610740573d6000803e3d6000fd5b505050506040513d601f19601f820116820180604052508101906107649190611543565b905060038081111561077957610778611570565b5b81600381111561078c5761078b611570565b5b146107c3576040517f32de337700000000000000000000000000000000000000000000000000000000815260040160405180910390fd5b600160009054906101000a900473ffffffffffffffffffffffffffffffffffffffff1673ffffffffffffffffffffffffffffffffffffffff16630b13acdf336040518263ffffffff1660e01b815260040161081e9190611366565b602060405180830381865afa15801561083b573d6000803e3d6000fd5b505050506040513d601f19601f8201168201806040525081019061085f91906115cb565b610895576040517f25ba1eb400000000000000000000000000000000000000000000000000000000815260040160405180910390fd5b6040518060a001604052808473ffffffffffffffffffffffffffffffffffffffff1681526020013373ffffffffffffffffffffffffffffffffffffffff168152602001838152602001600015158152602001600015158152506003836040516108fe9190611634565b908152602001604051809103902060008201518160000160006101000a81548173ffffffffffffffffffffffffffffffffffffffff021916908373ffffffffffffffffffffffffffffffffffffffff16021790555060208201518160010160006101000a81548173ffffffffffffffffffffffffffffffffffffffff021916908373ffffffffffffffffffffffffffffffffffffffff16021790555060408201518160020190816109af91906118c3565b5060608201518160030160006101000a81548160ff02191690831515021790555060808201518160030160016101000a81548160ff021916908315150217905550905050600260008473ffffffffffffffffffffffffffffffffffffffff1673ffffffffffffffffffffffffffffffffffffffff16815260200190815260200160002082908060018154018082558091505060019003906000526020600020016000909190919091509081610a6491906118c3565b503373ffffffffffffffffffffffffffffffffffffffff168373ffffffffffffffffffffffffffffffffffffffff167f635a2a021387b7d8da6aa5067622397492a8fab8696b2a993f55ec80aecc458584604051610ac29190611695565b60405180910390a3505050565b610ad761103d565b6000600384604051610ae99190611634565b90815260200160405180910390206040518060a00160405290816000820160009054906101000a900473ffffffffffffffffffffffffffffffffffffffff1673ffffffffffffffffffffffffffffffffffffffff1673ffffffffffffffffffffffffffffffffffffffff1681526020016001820160009054906101000a900473ffffffffffffffffffffffffffffffffffffffff1673ffffffffffffffffffffffffffffffffffffffff1673ffffffffffffffffffffffffffffffffffffffff168152602001600282018054610bbe906116e6565b80601f0160208091040260200160405190810160405280929190818152602001828054610bea906116e6565b8015610c375780601f10610c0c57610100808354040283529160200191610c37565b820191906000526020600020905b815481529060010190602001808311610c1a57829003601f168201915b505050505081526020016003820160009054906101000a900460ff161515151581526020016003820160019054906101000a900460ff1615151515815250509050806020015173ffffffffffffffffffffffffffffffffffffffff163373ffffffffffffffffffffffffffffffffffffffff1614158015610ce85750806000015173ffffffffffffffffffffffffffffffffffffffff163373ffffffffffffffffffffffffffffffffffffffff1614155b8015610d7b5750600460008473ffffffffffffffffffffffffffffffffffffffff1673ffffffffffffffffffffffffffffffffffffffff16815260200190815260200160002060003373ffffffffffffffffffffffffffffffffffffffff1673ffffffffffffffffffffffffffffffffffffffff16815260200190815260200160002060009054906101000a900460ff16155b8015610dba5750610d8a610643565b73ffffffffffffffffffffffffffffffffffffffff163373ffffffffffffffffffffffffffffffffffffffff1614155b15610df1576040517fe0d3a34300000000000000000000000000000000000000000000000000000000815260040160405180910390fd5b8091505092915050565b610e03610eea565b600073ffffffffffffffffffffffffffffffffffffffff168173ffffffffffffffffffffffffffffffffffffffff1603610e755760006040517f1e4fbdf7000000000000000000000000000000000000000000000000000000008152600401610e6c9190611366565b60405180910390fd5b610e7e81610f71565b50565b600073ffffffffffffffffffffffffffffffffffffffff168173ffffffffffffffffffffffffffffffffffffffff1603610ee7576040517f287170f900000000000000000000000000000000000000000000000000000000815260040160405180910390fd5b50565b610ef2611035565b73ffffffffffffffffffffffffffffffffffffffff16610f10610643565b73ffffffffffffffffffffffffffffffffffffffff1614610f6f57610f33611035565b6040517f118cdaa7000000000000000000000000000000000000000000000000000000008152600401610f669190611366565b60405180910390fd5b565b60008060009054906101000a900473ffffffffffffffffffffffffffffffffffffffff169050816000806101000a81548173ffffffffffffffffffffffffffffffffffffffff021916908373ffffffffffffffffffffffffffffffffffffffff1602179055508173ffffffffffffffffffffffffffffffffffffffff168173ffffffffffffffffffffffffffffffffffffffff167f8be0079c531659141344cd1fd0a4f28419497f9722a3daafe3b4186f6b6457e060405160405180910390a35050565b600033905090565b6040518060a00160405280600073ffffffffffffffffffffffffffffffffffffffff168152602001600073ffffffffffffffffffffffffffffffffffffffff168152602001606081526020016000151581526020016000151581525090565b6000604051905090565b600080fd5b600080fd5b600073ffffffffffffffffffffffffffffffffffffffff82169050919050565b60006110db826110b0565b9050919050565b6110eb816110d0565b81146110f657600080fd5b50565b600081359050611108816110e2565b92915050565b600060208284031215611124576111236110a6565b5b6000611132848285016110f9565b91505092915050565b6000819050919050565b600061116061115b611156846110b0565b61113b565b6110b0565b9050919050565b600061117282611145565b9050919050565b600061118482611167565b9050919050565b61119481611179565b82525050565b60006020820190506111af600083018461118b565b92915050565b600080fd5b600080fd5b6000601f19601f8301169050919050565b7f4e487b7100000000000000000000000000000000000000000000000000000000600052604160045260246000fd5b611208826111bf565b810181811067ffffffffffffffff82111715611227576112266111d0565b5b80604052505050565b600061123a61109c565b905061124682826111ff565b919050565b600067ffffffffffffffff821115611266576112656111d0565b5b61126f826111bf565b9050602081019050919050565b82818337600083830152505050565b600061129e6112998461124b565b611230565b9050828152602081018484840111156112ba576112b96111ba565b5b6112c584828561127c565b509392505050565b600082601f8301126112e2576112e16111b5565b5b81356112f284826020860161128b565b91505092915050565b60008060408385031215611312576113116110a6565b5b600083013567ffffffffffffffff8111156113305761132f6110ab565b5b61133c858286016112cd565b925050602061134d858286016110f9565b9150509250929050565b611360816110d0565b82525050565b600060208201905061137b6000830184611357565b92915050565b60008060408385031215611398576113976110a6565b5b60006113a6858286016110f9565b925050602083013567ffffffffffffffff8111156113c7576113c66110ab565b5b6113d3858286016112cd565b9150509250929050565b6113e6816110d0565b82525050565b600081519050919050565b600082825260208201905092915050565b60005b8381101561142657808201518184015260208101905061140b565b60008484015250505050565b600061143d826113ec565b61144781856113f7565b9350611457818560208601611408565b611460816111bf565b840191505092915050565b60008115159050919050565b6114808161146b565b82525050565b600060a08301600083015161149e60008601826113dd565b5060208301516114b160208601826113dd565b50604083015184820360408601526114c98282611432565b91505060608301516114de6060860182611477565b5060808301516114f16080860182611477565b508091505092915050565b600060208201905081810360008301526115168184611486565b905092915050565b6004811061152b57600080fd5b50565b60008151905061153d8161151e565b92915050565b600060208284031215611559576115586110a6565b5b60006115678482850161152e565b91505092915050565b7f4e487b7100000000000000000000000000000000000000000000000000000000600052602160045260246000fd5b6115a88161146b565b81146115b357600080fd5b50565b6000815190506115c58161159f565b92915050565b6000602082840312156115e1576115e06110a6565b5b60006115ef848285016115b6565b91505092915050565b600081905092915050565b600061160e826113ec565b61161881856115f8565b9350611628818560208601611408565b80840191505092915050565b60006116408284611603565b915081905092915050565b600082825260208201905092915050565b6000611667826113ec565b611671818561164b565b9350611681818560208601611408565b61168a816111bf565b840191505092915050565b600060208201905081810360008301526116af818461165c565b905092915050565b7f4e487b7100000000000000000000000000000000000000000000000000000000600052602260045260246000fd5b600060028204905060018216806116fe57607f821691505b602082108103611711576117106116b7565b5b50919050565b60008190508160005260206000209050919050565b60006020601f8301049050919050565b600082821b905092915050565b6000600883026117797fffffffffffffffffffffffffffffffffffffffffffffffffffffffffffffffff8261173c565b611783868361173c565b95508019841693508086168417925050509392505050565b6000819050919050565b60006117c06117bb6117b68461179b565b61113b565b61179b565b9050919050565b6000819050919050565b6117da836117a5565b6117ee6117e6826117c7565b848454611749565b825550505050565b600090565b6118036117f6565b61180e8184846117d1565b505050565b5b81811015611832576118276000826117fb565b600181019050611814565b5050565b601f8211156118775761184881611717565b6118518461172c565b81016020851015611860578190505b61187461186c8561172c565b830182611813565b50505b505050565b600082821c905092915050565b600061189a6000198460080261187c565b1980831691505092915050565b60006118b38383611889565b9150826002028217905092915050565b6118cc826113ec565b67ffffffffffffffff8111156118e5576118e46111d0565b5b6118ef82546116e6565b6118fa828285611836565b600060209050601f83116001811461192d576000841561191b578287015190505b61192585826118a7565b86555061198d565b601f19841661193b86611717565b60005b828110156119635784890151825560018201915060208501945060208101905061193e565b86831015611980578489015161197c601f891682611889565b8355505b6001600288020188555050505b50505050505056fea2646970667358221220d41ba03ef35f176aad101c023fcb4b700f4a7e696d4d0c0d4a8e0800f79e445b64736f6c63430008180033",
  "linkReferences": {},
  "deployedLinkReferences": {}
}