{
  "_format": "hh-sol-artifact-1",
  "contractName": "UserManagement",
  "sourceName": "contracts/UserManagement.sol",
  "abi": [
    {
      "inputs": [],
      "stateMutability": "nonpayable",
      "type": "constructor"
    },
    {
      "inputs": [],
      "name": "AddressZeroDetected",
      "type": "error"
    },
    {
      "inputs": [],
      "name": "AlreadyHasRole",
      "type": "error"
    },
    {
      "inputs": [],
      "name": "AlreadyRegistered",
      "type": "error"
    },
    {
      "inputs": [],
      "name": "InvalidRole",
      "type": "error"
    },
    {
      "inputs": [],
      "name": "NotDoctor",
      "type": "error"
    },
    {
      "inputs": [],
      "name": "NotPharmacy",
      "type": "error"
    },
    {
      "inputs": [],
      "name": "NotRegistered",
      "type": "error"
    },
    {
      "inputs": [
        {
          "internalType": "address",
          "name": "owner",
          "type": "address"
        }
      ],
      "name": "OwnableInvalidOwner",
      "type": "error"
    },
    {
      "inputs": [
        {
          "internalType": "address",
          "name": "account",
          "type": "address"
        }
      ],
      "name": "OwnableUnauthorizedAccount",
      "type": "error"
    },
    {
      "anonymous": false,
      "inputs": [
        {
          "indexed": true,
          "internalType": "address",
          "name": "user",
          "type": "address"
        },
        {
          "indexed": false,
          "internalType": "enum UserManagement.Role",
          "name": "role",
          "type": "uint8"
        }
      ],
      "name": "DoctorRegistered",
      "type": "event"
    },
    {
      "anonymous": false,
      "inputs": [
        {
          "indexed": true,
          "internalType": "address",
          "name": "previousOwner",
          "type": "address"
        },
        {
          "indexed": true,
          "internalType": "address",
          "name": "newOwner",
          "type": "address"
        }
      ],
      "name": "OwnershipTransferred",
      "type": "event"
    },
    {
      "anonymous": false,
      "inputs": [
        {
          "indexed": true,
          "internalType": "address",
          "name": "user",
          "type": "address"
        },
        {
          "indexed": false,
          "internalType": "enum UserManagement.Role",
          "name": "role",
          "type": "uint8"
        }
      ],
      "name": "PatientRegistered",
      "type": "event"
    },
    {
      "anonymous": false,
      "inputs": [
        {
          "indexed": false,
          "internalType": "uint256",
          "name": "id",
          "type": "uint256"
        },
        {
          "indexed": true,
          "internalType": "address",
          "name": "user",
          "type": "address"
        },
        {
          "indexed": false,
          "internalType": "enum UserManagement.Role",
          "name": "role",
          "type": "uint8"
        }
      ],
      "name": "PharmacyRegistered",
      "type": "event"
    },
    {
      "anonymous": false,
      "inputs": [
        {
          "indexed": true,
          "internalType": "address",
          "name": "user",
          "type": "address"
        }
      ],
      "name": "UserVerified",
      "type": "event"
    },
    {
      "inputs": [],
      "name": "getAllPharmacies",
      "outputs": [
        {
          "internalType": "address[]",
          "name": "",
          "type": "address[]"
        }
      ],
      "stateMutability": "view",
      "type": "function"
    },
    {
      "inputs": [
        {
          "internalType": "address",
          "name": "_user",
          "type": "address"
        }
      ],
      "name": "getDoctorProfile",
      "outputs": [
        {
          "internalType": "string",
          "name": "",
          "type": "string"
        },
        {
          "internalType": "string",
          "name": "",
          "type": "string"
        },
        {
          "internalType": "string",
          "name": "",
          "type": "string"
        },
        {
          "internalType": "uint32",
          "name": "",
          "type": "uint32"
        },
        {
          "internalType": "string",
          "name": "",
          "type": "string"
        },
        {
          "internalType": "string",
          "name": "",
          "type": "string"
        },
        {
          "internalType": "string",
          "name": "",
          "type": "string"
        },
        {
          "internalType": "bool",
          "name": "",
          "type": "bool"
        },
        {
          "internalType": "bool",
          "name": "",
          "type": "bool"
        }
      ],
      "stateMutability": "view",
      "type": "function"
    },
    {
      "inputs": [
        {
          "internalType": "address",
          "name": "_user",
          "type": "address"
        }
      ],
      "name": "getPatientProfile",
      "outputs": [
        {
          "internalType": "string",
          "name": "",
          "type": "string"
        },
        {
          "internalType": "string",
          "name": "",
          "type": "string"
        },
        {
          "internalType": "string",
          "name": "",
          "type": "string"
        },
        {
          "internalType": "string",
          "name": "",
          "type": "string"
        }
      ],
      "stateMutability": "view",
      "type": "function"
    },
    {
      "inputs": [
        {
          "internalType": "address",
          "name": "_user",
          "type": "address"
        }
      ],
      "name": "getPharmacyProfile",
      "outputs": [
        {
          "internalType": "uint256",
          "name": "",
          "type": "uint256"
        },
        {
          "internalType": "string",
          "name": "",
          "type": "string"
        },
        {
          "internalType": "uint32",
          "name": "",
          "type": "uint32"
        },
        {
          "internalType": "string",
          "name": "",
          "type": "string"
        },
        {
          "internalType": "string",
          "name": "",
          "type": "string"
        },
        {
          "internalType": "string",
          "name": "",
          "type": "string"
        },
        {
          "internalType": "string",
          "name": "",
          "type": "string"
        },
        {
          "internalType": "bool",
          "name": "",
          "type": "bool"
        },
        {
          "internalType": "bool",
          "name": "",
          "type": "bool"
        }
      ],
      "stateMutability": "view",
      "type": "function"
    },
    {
      "inputs": [
        {
          "internalType": "address",
          "name": "_user",
          "type": "address"
        }
      ],
      "name": "getRole",
      "outputs": [
        {
          "internalType": "enum UserManagement.Role",
          "name": "",
          "type": "uint8"
        }
      ],
      "stateMutability": "view",
      "type": "function"
    },
    {
      "inputs": [
        {
          "internalType": "address",
          "name": "_doctor",
          "type": "address"
        }
      ],
      "name": "isDoctorVerified",
      "outputs": [
        {
          "internalType": "bool",
          "name": "",
          "type": "bool"
        }
      ],
      "stateMutability": "view",
      "type": "function"
    },
    {
      "inputs": [
        {
          "internalType": "address",
          "name": "_pharmacy",
          "type": "address"
        }
      ],
      "name": "isPharmacyVerified",
      "outputs": [
        {
          "internalType": "bool",
          "name": "",
          "type": "bool"
        }
      ],
      "stateMutability": "view",
      "type": "function"
    },
    {
      "inputs": [],
      "name": "owner",
      "outputs": [
        {
          "internalType": "address",
          "name": "",
          "type": "address"
        }
      ],
      "stateMutability": "view",
      "type": "function"
    },
    {
      "inputs": [
        {
          "internalType": "string",
          "name": "_firstName",
          "type": "string"
        },
        {
          "internalType": "string",
          "name": "_lastName",
          "type": "string"
        },
        {
          "internalType": "string",
          "name": "_about",
          "type": "string"
        },
        {
          "internalType": "uint32",
          "name": "_yearsOfExperience",
          "type": "uint32"
        },
        {
          "internalType": "string",
          "name": "_clinicName",
          "type": "string"
        },
        {
          "internalType": "string",
          "name": "_licenseNumber",
          "type": "string"
        },
        {
          "internalType": "string",
          "name": "_medicalCertificateHash",
          "type": "string"
        }
      ],
      "name": "registerDoctor",
      "outputs": [],
      "stateMutability": "nonpayable",
      "type": "function"
    },
    {
      "inputs": [
        {
          "internalType": "string",
          "name": "_firstName",
          "type": "string"
        },
        {
          "internalType": "string",
          "name": "_lastName",
          "type": "string"
        },
        {
          "internalType": "string",
          "name": "_dob",
          "type": "string"
        },
        {
          "internalType": "string",
          "name": "_healthInfo",
          "type": "string"
        }
      ],
      "name": "registerPatient",
      "outputs": [],
      "stateMutability": "nonpayable",
      "type": "function"
    },
    {
      "inputs": [
        {
          "internalType": "string",
          "name": "_storeName",
          "type": "string"
        },
        {
          "internalType": "uint32",
          "name": "_businessNumber",
          "type": "uint32"
        },
        {
          "internalType": "string",
          "name": "_pharmacyOwnerName",
          "type": "string"
        },
        {
          "internalType": "string",
          "name": "_storeLocation",
          "type": "string"
        },
        {
          "internalType": "string",
          "name": "_businessNumberCertificate",
          "type": "string"
        },
        {
          "internalType": "string",
          "name": "_licenseNumberCertificateHash",
          "type": "string"
        }
      ],
      "name": "registerPharmacy",
      "outputs": [],
      "stateMutability": "nonpayable",
      "type": "function"
    },
    {
      "inputs": [],
      "name": "renounceOwnership",
      "outputs": [],
      "stateMutability": "nonpayable",
      "type": "function"
    },
    {
      "inputs": [
        {
          "internalType": "address",
          "name": "newOwner",
          "type": "address"
        }
      ],
      "name": "transferOwnership",
      "outputs": [],
      "stateMutability": "nonpayable",
      "type": "function"
    },
    {
      "inputs": [
        {
          "internalType": "address",
          "name": "_user",
          "type": "address"
        },
        {
          "internalType": "enum UserManagement.Role",
          "name": "role",
          "type": "uint8"
        }
      ],
      "name": "verifyUser",
      "outputs": [],
      "stateMutability": "nonpayable",
      "type": "function"
    }
  ],
  "bytecode": "0x60806040523480156200001157600080fd5b5033600073ffffffffffffffffffffffffffffffffffffffff168173ffffffffffffffffffffffffffffffffffffffff1603620000885760006040517f1e4fbdf70000000000000000000000000000000000000000000000000000000081526004016200007f9190620001a9565b60405180910390fd5b6200009981620000a060201b60201c565b50620001c6565b60008060009054906101000a900473ffffffffffffffffffffffffffffffffffffffff169050816000806101000a81548173ffffffffffffffffffffffffffffffffffffffff021916908373ffffffffffffffffffffffffffffffffffffffff1602179055508173ffffffffffffffffffffffffffffffffffffffff168173ffffffffffffffffffffffffffffffffffffffff167f8be0079c531659141344cd1fd0a4f28419497f9722a3daafe3b4186f6b6457e060405160405180910390a35050565b600073ffffffffffffffffffffffffffffffffffffffff82169050919050565b6000620001918262000164565b9050919050565b620001a38162000184565b82525050565b6000602082019050620001c0600083018462000198565b92915050565b612c8980620001d66000396000f3fe608060405234801561001057600080fd5b50600436106100ea5760003560e01c8063715018a61161008c578063cbe07ef611610066578063cbe07ef61461026e578063ebe0d5061461029e578063f2fde38b146102ba578063f33465e4146102d6576100ea565b8063715018a61461022a5780638da5cb5b14610234578063c2c3242514610252576100ea565b8063461a2082116100c8578063461a20821461016b5780634ba0a0201461019e5780635cbcd8eb146101ba5780636e168a77146101f2576100ea565b80630b13acdf146100ef5780633c8f86661461011f578063442767331461013b575b600080fd5b61010960048036038101906101049190611f5a565b6102f4565b6040516101169190611fa2565b60405180910390f35b6101396004803603810190610134919061213f565b6103d3565b005b61015560048036038101906101509190611f5a565b61072a565b60405161016291906122cf565b60405180910390f35b61018560048036038101906101809190611f5a565b610780565b6040516101959493929190612369565b60405180910390f35b6101b860048036038101906101b391906123ca565b610a96565b005b6101d460048036038101906101cf9190611f5a565b610cce565b6040516101e9999897969594939291906124b0565b60405180910390f35b61020c60048036038101906102079190611f5a565b61117d565b60405161022199989796959493929190612580565b60405180910390f35b6102326115a4565b005b61023c6115b8565b604051610249919061263f565b60405180910390f35b61026c6004803603810190610267919061267f565b6115e1565b005b61028860048036038101906102839190611f5a565b6117bd565b6040516102959190611fa2565b60405180910390f35b6102b860048036038101906102b391906126bf565b61189c565b005b6102d460048036038101906102cf9190611f5a565b611b6d565b005b6102de611bf3565b6040516102eb91906128c7565b60405180910390f35b6000600360008373ffffffffffffffffffffffffffffffffffffffff1673ffffffffffffffffffffffffffffffffffffffff16815260200190815260200160002060070160009054906101000a900460ff1661037c576040517f54069c0700000000000000000000000000000000000000000000000000000000815260040160405180910390fd5b600360008373ffffffffffffffffffffffffffffffffffffffff1673ffffffffffffffffffffffffffffffffffffffff16815260200190815260200160002060070160019054906101000a900460ff169050919050565b6103db611c81565b6103e3611ce9565b600260003373ffffffffffffffffffffffffffffffffffffffff1673ffffffffffffffffffffffffffffffffffffffff16815260200190815260200160002060070160009054906101000a900460ff161561046a576040517f3a81d6fc00000000000000000000000000000000000000000000000000000000815260040160405180910390fd5b6000600160065461047b9190612918565b90506040518061012001604052808281526020018881526020018763ffffffff16815260200186815260200185815260200184815260200183815260200160011515815260200160001515815250600260003373ffffffffffffffffffffffffffffffffffffffff1673ffffffffffffffffffffffffffffffffffffffff1681526020019081526020016000206000820151816000015560208201518160010190816105279190612b58565b5060408201518160020160006101000a81548163ffffffff021916908363ffffffff16021790555060608201518160030190816105649190612b58565b50608082015181600401908161057a9190612b58565b5060a08201518160050190816105909190612b58565b5060c08201518160060190816105a69190612b58565b5060e08201518160070160006101000a81548160ff0219169083151502179055506101008201518160070160016101000a81548160ff0219169083151502179055509050506005339080600181540180825580915050600190039060005260206000200160009091909190916101000a81548173ffffffffffffffffffffffffffffffffffffffff021916908373ffffffffffffffffffffffffffffffffffffffff1602179055506002600460003373ffffffffffffffffffffffffffffffffffffffff1673ffffffffffffffffffffffffffffffffffffffff16815260200190815260200160002060006101000a81548160ff021916908360038111156106b1576106b0612258565b5b02179055503373ffffffffffffffffffffffffffffffffffffffff167f9f535ec70f95fdbd949c8c8209456115d73b8500c5adc9a890ef2e58ea4c8af38260026040516106ff929190612c2a565b60405180910390a260016006600082825461071a9190612918565b9250508190555050505050505050565b6000600460008373ffffffffffffffffffffffffffffffffffffffff1673ffffffffffffffffffffffffffffffffffffffff16815260200190815260200160002060009054906101000a900460ff169050919050565b6060806060806000600160008773ffffffffffffffffffffffffffffffffffffffff1673ffffffffffffffffffffffffffffffffffffffff1681526020019081526020016000206040518060a00160405290816000820180546107e29061297b565b80601f016020809104026020016040519081016040528092919081815260200182805461080e9061297b565b801561085b5780601f106108305761010080835404028352916020019161085b565b820191906000526020600020905b81548152906001019060200180831161083e57829003601f168201915b505050505081526020016001820180546108749061297b565b80601f01602080910402602001604051908101604052809291908181526020018280546108a09061297b565b80156108ed5780601f106108c2576101008083540402835291602001916108ed565b820191906000526020600020905b8154815290600101906020018083116108d057829003601f168201915b505050505081526020016002820180546109069061297b565b80601f01602080910402602001604051908101604052809291908181526020018280546109329061297b565b801561097f5780601f106109545761010080835404028352916020019161097f565b820191906000526020600020905b81548152906001019060200180831161096257829003601f168201915b505050505081526020016003820180546109989061297b565b80601f01602080910402602001604051908101604052809291908181526020018280546109c49061297b565b8015610a115780601f106109e657610100808354040283529160200191610a11565b820191906000526020600020905b8154815290600101906020018083116109f457829003601f168201915b505050505081526020016004820160009054906101000a900460ff16151515158152505090508060800151610a72576040517faba4733900000000000000000000000000000000000000000000000000000000815260040160405180910390fd5b80600001518160200151826040015183606001519450945094509450509193509193565b610a9e611c81565b610aa6611ce9565b600160003373ffffffffffffffffffffffffffffffffffffffff1673ffffffffffffffffffffffffffffffffffffffff16815260200190815260200160002060040160009054906101000a900460ff1615610b2d576040517f3a81d6fc00000000000000000000000000000000000000000000000000000000815260040160405180910390fd5b6040518060a0016040528085815260200184815260200183815260200182815260200160011515815250600160003373ffffffffffffffffffffffffffffffffffffffff1673ffffffffffffffffffffffffffffffffffffffff1681526020019081526020016000206000820151816000019081610bab9190612b58565b506020820151816001019081610bc19190612b58565b506040820151816002019081610bd79190612b58565b506060820151816003019081610bed9190612b58565b5060808201518160040160006101000a81548160ff0219169083151502179055509050506001600460003373ffffffffffffffffffffffffffffffffffffffff1673ffffffffffffffffffffffffffffffffffffffff16815260200190815260200160002060006101000a81548160ff02191690836003811115610c7457610c73612258565b5b02179055503373ffffffffffffffffffffffffffffffffffffffff167f0af5bb87eee29809fb8cfe1b8c92a3834699117eca072d8bc94ceaeb27f9cba06001604051610cc091906122cf565b60405180910390a250505050565b6060806060600060608060606000806000600360008c73ffffffffffffffffffffffffffffffffffffffff1673ffffffffffffffffffffffffffffffffffffffff16815260200190815260200160002060405180610120016040529081600082018054610d3a9061297b565b80601f0160208091040260200160405190810160405280929190818152602001828054610d669061297b565b8015610db35780601f10610d8857610100808354040283529160200191610db3565b820191906000526020600020905b815481529060010190602001808311610d9657829003601f168201915b50505050508152602001600182018054610dcc9061297b565b80601f0160208091040260200160405190810160405280929190818152602001828054610df89061297b565b8015610e455780601f10610e1a57610100808354040283529160200191610e45565b820191906000526020600020905b815481529060010190602001808311610e2857829003601f168201915b50505050508152602001600282018054610e5e9061297b565b80601f0160208091040260200160405190810160405280929190818152602001828054610e8a9061297b565b8015610ed75780601f10610eac57610100808354040283529160200191610ed7565b820191906000526020600020905b815481529060010190602001808311610eba57829003601f168201915b505050505081526020016003820160009054906101000a900463ffffffff1663ffffffff1663ffffffff168152602001600482018054610f169061297b565b80601f0160208091040260200160405190810160405280929190818152602001828054610f429061297b565b8015610f8f5780601f10610f6457610100808354040283529160200191610f8f565b820191906000526020600020905b815481529060010190602001808311610f7257829003601f168201915b50505050508152602001600582018054610fa89061297b565b80601f0160208091040260200160405190810160405280929190818152602001828054610fd49061297b565b80156110215780601f10610ff657610100808354040283529160200191611021565b820191906000526020600020905b81548152906001019060200180831161100457829003601f168201915b5050505050815260200160068201805461103a9061297b565b80601f01602080910402602001604051908101604052809291908181526020018280546110669061297b565b80156110b35780601f10611088576101008083540402835291602001916110b3565b820191906000526020600020905b81548152906001019060200180831161109657829003601f168201915b505050505081526020016007820160009054906101000a900460ff161515151581526020016007820160019054906101000a900460ff16151515158152505090508060e0015161112f576040517faba4733900000000000000000000000000000000000000000000000000000000815260040160405180910390fd5b806000015181602001518260400151836060015184608001518560a001518660c001518760e00151886101000151995099509950995099509950995099509950509193959799909294969850565b6000606060006060806060806000806000600260008c73ffffffffffffffffffffffffffffffffffffffff1673ffffffffffffffffffffffffffffffffffffffff16815260200190815260200160002060405180610120016040529081600082015481526020016001820180546111f39061297b565b80601f016020809104026020016040519081016040528092919081815260200182805461121f9061297b565b801561126c5780601f106112415761010080835404028352916020019161126c565b820191906000526020600020905b81548152906001019060200180831161124f57829003601f168201915b505050505081526020016002820160009054906101000a900463ffffffff1663ffffffff1663ffffffff1681526020016003820180546112ab9061297b565b80601f01602080910402602001604051908101604052809291908181526020018280546112d79061297b565b80156113245780601f106112f957610100808354040283529160200191611324565b820191906000526020600020905b81548152906001019060200180831161130757829003601f168201915b5050505050815260200160048201805461133d9061297b565b80601f01602080910402602001604051908101604052809291908181526020018280546113699061297b565b80156113b65780601f1061138b576101008083540402835291602001916113b6565b820191906000526020600020905b81548152906001019060200180831161139957829003601f168201915b505050505081526020016005820180546113cf9061297b565b80601f01602080910402602001604051908101604052809291908181526020018280546113fb9061297b565b80156114485780601f1061141d57610100808354040283529160200191611448565b820191906000526020600020905b81548152906001019060200180831161142b57829003601f168201915b505050505081526020016006820180546114619061297b565b80601f016020809104026020016040519081016040528092919081815260200182805461148d9061297b565b80156114da5780601f106114af576101008083540402835291602001916114da565b820191906000526020600020905b8154815290600101906020018083116114bd57829003601f168201915b505050505081526020016007820160009054906101000a900460ff161515151581526020016007820160019054906101000a900460ff16151515158152505090508060e00151611556576040517faba4733900000000000000000000000000000000000000000000000000000000815260040160405180910390fd5b806000015181602001518260400151836060015184608001518560a001518660c001518760e00151886101000151995099509950995099509950995099509950509193959799909294969850565b6115ac611d95565b6115b66000611e1c565b565b60008060009054906101000a900473ffffffffffffffffffffffffffffffffffffffff16905090565b6115e9611d95565b600260038111156115fd576115fc612258565b5b8160038111156116105761160f612258565b5b036116b8576001600260008473ffffffffffffffffffffffffffffffffffffffff1673ffffffffffffffffffffffffffffffffffffffff16815260200190815260200160002060070160016101000a81548160ff0219169083151502179055508173ffffffffffffffffffffffffffffffffffffffff167fa6625d2d26e786e2f473111bea4b2fcdbbf1863d883a2359989ce3a103d2972a60405160405180910390a26117b9565b6003808111156116cb576116ca612258565b5b8160038111156116de576116dd612258565b5b03611786576001600360008473ffffffffffffffffffffffffffffffffffffffff1673ffffffffffffffffffffffffffffffffffffffff16815260200190815260200160002060070160016101000a81548160ff0219169083151502179055508173ffffffffffffffffffffffffffffffffffffffff167fa6625d2d26e786e2f473111bea4b2fcdbbf1863d883a2359989ce3a103d2972a60405160405180910390a26117b8565b6040517fd954416a00000000000000000000000000000000000000000000000000000000815260040160405180910390fd5b5b5050565b6000600260008373ffffffffffffffffffffffffffffffffffffffff1673ffffffffffffffffffffffffffffffffffffffff16815260200190815260200160002060070160009054906101000a900460ff16611845576040517f88e850da00000000000000000000000000000000000000000000000000000000815260040160405180910390fd5b600260008373ffffffffffffffffffffffffffffffffffffffff1673ffffffffffffffffffffffffffffffffffffffff16815260200190815260200160002060070160019054906101000a900460ff169050919050565b6118a4611c81565b6118ac611ce9565b600360003373ffffffffffffffffffffffffffffffffffffffff1673ffffffffffffffffffffffffffffffffffffffff16815260200190815260200160002060070160009054906101000a900460ff1615611933576040517f3a81d6fc00000000000000000000000000000000000000000000000000000000815260040160405180910390fd5b6040518061012001604052808881526020018781526020018681526020018563ffffffff16815260200184815260200183815260200182815260200160011515815260200160001515815250600360003373ffffffffffffffffffffffffffffffffffffffff1673ffffffffffffffffffffffffffffffffffffffff16815260200190815260200160002060008201518160000190816119d39190612b58565b5060208201518160010190816119e99190612b58565b5060408201518160020190816119ff9190612b58565b5060608201518160030160006101000a81548163ffffffff021916908363ffffffff1602179055506080820151816004019081611a3c9190612b58565b5060a0820151816005019081611a529190612b58565b5060c0820151816006019081611a689190612b58565b5060e08201518160070160006101000a81548160ff0219169083151502179055506101008201518160070160016101000a81548160ff0219169083151502179055509050506003600460003373ffffffffffffffffffffffffffffffffffffffff1673ffffffffffffffffffffffffffffffffffffffff16815260200190815260200160002060006101000a81548160ff02191690836003811115611b1057611b0f612258565b5b02179055503373ffffffffffffffffffffffffffffffffffffffff167f64e75ca1736224333b127b22880b2495a05229624f8f6dadd8ed9ba9837d13626003604051611b5c91906122cf565b60405180910390a250505050505050565b611b75611d95565b600073ffffffffffffffffffffffffffffffffffffffff168173ffffffffffffffffffffffffffffffffffffffff1603611be75760006040517f1e4fbdf7000000000000000000000000000000000000000000000000000000008152600401611bde919061263f565b60405180910390fd5b611bf081611e1c565b50565b60606005805480602002602001604051908101604052809291908181526020018280548015611c7757602002820191906000526020600020905b8160009054906101000a900473ffffffffffffffffffffffffffffffffffffffff1673ffffffffffffffffffffffffffffffffffffffff1681526020019060010190808311611c2d575b5050505050905090565b600073ffffffffffffffffffffffffffffffffffffffff163373ffffffffffffffffffffffffffffffffffffffff1603611ce7576040517f287170f900000000000000000000000000000000000000000000000000000000815260040160405180910390fd5b565b60006003811115611cfd57611cfc612258565b5b600460003373ffffffffffffffffffffffffffffffffffffffff1673ffffffffffffffffffffffffffffffffffffffff16815260200190815260200160002060009054906101000a900460ff166003811115611d5c57611d5b612258565b5b14611d93576040517fa2b8f74800000000000000000000000000000000000000000000000000000000815260040160405180910390fd5b565b611d9d611ee0565b73ffffffffffffffffffffffffffffffffffffffff16611dbb6115b8565b73ffffffffffffffffffffffffffffffffffffffff1614611e1a57611dde611ee0565b6040517f118cdaa7000000000000000000000000000000000000000000000000000000008152600401611e11919061263f565b60405180910390fd5b565b60008060009054906101000a900473ffffffffffffffffffffffffffffffffffffffff169050816000806101000a81548173ffffffffffffffffffffffffffffffffffffffff021916908373ffffffffffffffffffffffffffffffffffffffff1602179055508173ffffffffffffffffffffffffffffffffffffffff168173ffffffffffffffffffffffffffffffffffffffff167f8be0079c531659141344cd1fd0a4f28419497f9722a3daafe3b4186f6b6457e060405160405180910390a35050565b600033905090565b6000604051905090565b600080fd5b600080fd5b600073ffffffffffffffffffffffffffffffffffffffff82169050919050565b6000611f2782611efc565b9050919050565b611f3781611f1c565b8114611f4257600080fd5b50565b600081359050611f5481611f2e565b92915050565b600060208284031215611f7057611f6f611ef2565b5b6000611f7e84828501611f45565b91505092915050565b60008115159050919050565b611f9c81611f87565b82525050565b6000602082019050611fb76000830184611f93565b92915050565b600080fd5b600080fd5b6000601f19601f8301169050919050565b7f4e487b7100000000000000000000000000000000000000000000000000000000600052604160045260246000fd5b61201082611fc7565b810181811067ffffffffffffffff8211171561202f5761202e611fd8565b5b80604052505050565b6000612042611ee8565b905061204e8282612007565b919050565b600067ffffffffffffffff82111561206e5761206d611fd8565b5b61207782611fc7565b9050602081019050919050565b82818337600083830152505050565b60006120a66120a184612053565b612038565b9050828152602081018484840111156120c2576120c1611fc2565b5b6120cd848285612084565b509392505050565b600082601f8301126120ea576120e9611fbd565b5b81356120fa848260208601612093565b91505092915050565b600063ffffffff82169050919050565b61211c81612103565b811461212757600080fd5b50565b60008135905061213981612113565b92915050565b60008060008060008060c0878903121561215c5761215b611ef2565b5b600087013567ffffffffffffffff81111561217a57612179611ef7565b5b61218689828a016120d5565b965050602061219789828a0161212a565b955050604087013567ffffffffffffffff8111156121b8576121b7611ef7565b5b6121c489828a016120d5565b945050606087013567ffffffffffffffff8111156121e5576121e4611ef7565b5b6121f189828a016120d5565b935050608087013567ffffffffffffffff81111561221257612211611ef7565b5b61221e89828a016120d5565b92505060a087013567ffffffffffffffff81111561223f5761223e611ef7565b5b61224b89828a016120d5565b9150509295509295509295565b7f4e487b7100000000000000000000000000000000000000000000000000000000600052602160045260246000fd5b6004811061229857612297612258565b5b50565b60008190506122a982612287565b919050565b60006122b98261229b565b9050919050565b6122c9816122ae565b82525050565b60006020820190506122e460008301846122c0565b92915050565b600081519050919050565b600082825260208201905092915050565b60005b83811015612324578082015181840152602081019050612309565b60008484015250505050565b600061233b826122ea565b61234581856122f5565b9350612355818560208601612306565b61235e81611fc7565b840191505092915050565b600060808201905081810360008301526123838187612330565b905081810360208301526123978186612330565b905081810360408301526123ab8185612330565b905081810360608301526123bf8184612330565b905095945050505050565b600080600080608085870312156123e4576123e3611ef2565b5b600085013567ffffffffffffffff81111561240257612401611ef7565b5b61240e878288016120d5565b945050602085013567ffffffffffffffff81111561242f5761242e611ef7565b5b61243b878288016120d5565b935050604085013567ffffffffffffffff81111561245c5761245b611ef7565b5b612468878288016120d5565b925050606085013567ffffffffffffffff81111561248957612488611ef7565b5b612495878288016120d5565b91505092959194509250565b6124aa81612103565b82525050565b60006101208201905081810360008301526124cb818c612330565b905081810360208301526124df818b612330565b905081810360408301526124f3818a612330565b905061250260608301896124a1565b81810360808301526125148188612330565b905081810360a08301526125288187612330565b905081810360c083015261253c8186612330565b905061254b60e0830185611f93565b612559610100830184611f93565b9a9950505050505050505050565b6000819050919050565b61257a81612567565b82525050565b600061012082019050612596600083018c612571565b81810360208301526125a8818b612330565b90506125b7604083018a6124a1565b81810360608301526125c98189612330565b905081810360808301526125dd8188612330565b905081810360a08301526125f18187612330565b905081810360c08301526126058186612330565b905061261460e0830185611f93565b612622610100830184611f93565b9a9950505050505050505050565b61263981611f1c565b82525050565b60006020820190506126546000830184612630565b92915050565b6004811061266757600080fd5b50565b6000813590506126798161265a565b92915050565b6000806040838503121561269657612695611ef2565b5b60006126a485828601611f45565b92505060206126b58582860161266a565b9150509250929050565b600080600080600080600060e0888a0312156126de576126dd611ef2565b5b600088013567ffffffffffffffff8111156126fc576126fb611ef7565b5b6127088a828b016120d5565b975050602088013567ffffffffffffffff81111561272957612728611ef7565b5b6127358a828b016120d5565b965050604088013567ffffffffffffffff81111561275657612755611ef7565b5b6127628a828b016120d5565b95505060606127738a828b0161212a565b945050608088013567ffffffffffffffff81111561279457612793611ef7565b5b6127a08a828b016120d5565b93505060a088013567ffffffffffffffff8111156127c1576127c0611ef7565b5b6127cd8a828b016120d5565b92505060c088013567ffffffffffffffff8111156127ee576127ed611ef7565b5b6127fa8a828b016120d5565b91505092959891949750929550565b600081519050919050565b600082825260208201905092915050565b6000819050602082019050919050565b61283e81611f1c565b82525050565b60006128508383612835565b60208301905092915050565b6000602082019050919050565b600061287482612809565b61287e8185612814565b935061288983612825565b8060005b838110156128ba5781516128a18882612844565b97506128ac8361285c565b92505060018101905061288d565b5085935050505092915050565b600060208201905081810360008301526128e18184612869565b905092915050565b7f4e487b7100000000000000000000000000000000000000000000000000000000600052601160045260246000fd5b600061292382612567565b915061292e83612567565b9250828201905080821115612946576129456128e9565b5b92915050565b7f4e487b7100000000000000000000000000000000000000000000000000000000600052602260045260246000fd5b6000600282049050600182168061299357607f821691505b6020821081036129a6576129a561294c565b5b50919050565b60008190508160005260206000209050919050565b60006020601f8301049050919050565b600082821b905092915050565b600060088302612a0e7fffffffffffffffffffffffffffffffffffffffffffffffffffffffffffffffff826129d1565b612a1886836129d1565b95508019841693508086168417925050509392505050565b6000819050919050565b6000612a55612a50612a4b84612567565b612a30565b612567565b9050919050565b6000819050919050565b612a6f83612a3a565b612a83612a7b82612a5c565b8484546129de565b825550505050565b600090565b612a98612a8b565b612aa3818484612a66565b505050565b5b81811015612ac757612abc600082612a90565b600181019050612aa9565b5050565b601f821115612b0c57612add816129ac565b612ae6846129c1565b81016020851015612af5578190505b612b09612b01856129c1565b830182612aa8565b50505b505050565b600082821c905092915050565b6000612b2f60001984600802612b11565b1980831691505092915050565b6000612b488383612b1e565b9150826002028217905092915050565b612b61826122ea565b67ffffffffffffffff811115612b7a57612b79611fd8565b5b612b84825461297b565b612b8f828285612acb565b600060209050601f831160018114612bc25760008415612bb0578287015190505b612bba8582612b3c565b865550612c22565b601f198416612bd0866129ac565b60005b82811015612bf857848901518255600182019150602085019450602081019050612bd3565b86831015612c155784890151612c11601f891682612b1e565b8355505b6001600288020188555050505b505050505050565b6000604082019050612c3f6000830185612571565b612c4c60208301846122c0565b939250505056fea2646970667358221220223a9484331925dfde161477053ce12eae20954247505ed869aa2f170800182764736f6c63430008180033",
  "linkReferences": {},
  "deployedLinkReferences": {}
}