{
  "_format": "hh-sol-artifact-1",
  "contractName": "UserManagement",
  "sourceName": "contracts/UserManagement.sol",
  "abi": [
    {
      "inputs": [],
      "stateMutability": "nonpayable",
      "type": "constructor"
    },
    {
      "inputs": [],
      "name": "AddressZeroDetected",
      "type": "error"
    },
    {
      "inputs": [],
      "name": "AlreadyHasRole",
      "type": "error"
    },
    {
      "inputs": [],
      "name": "AlreadyRegistered",
      "type": "error"
    },
    {
      "inputs": [],
      "name": "InvalidRole",
      "type": "error"
    },
    {
      "inputs": [],
      "name": "NotDoctor",
      "type": "error"
    },
    {
      "inputs": [],
      "name": "NotPharmacy",
      "type": "error"
    },
    {
      "inputs": [],
      "name": "NotRegistered",
      "type": "error"
    },
    {
      "inputs": [
        {
          "internalType": "address",
          "name": "owner",
          "type": "address"
        }
      ],
      "name": "OwnableInvalidOwner",
      "type": "error"
    },
    {
      "inputs": [
        {
          "internalType": "address",
          "name": "account",
          "type": "address"
        }
      ],
      "name": "OwnableUnauthorizedAccount",
      "type": "error"
    },
    {
      "anonymous": false,
      "inputs": [
        {
          "indexed": true,
          "internalType": "address",
          "name": "previousOwner",
          "type": "address"
        },
        {
          "indexed": true,
          "internalType": "address",
          "name": "newOwner",
          "type": "address"
        }
      ],
      "name": "OwnershipTransferred",
      "type": "event"
    },
    {
      "anonymous": false,
      "inputs": [
        {
          "indexed": true,
          "internalType": "address",
          "name": "user",
          "type": "address"
        },
        {
          "indexed": false,
          "internalType": "enum UserManagement.Role",
          "name": "role",
          "type": "uint8"
        }
      ],
      "name": "UserRegistered",
      "type": "event"
    },
    {
      "anonymous": false,
      "inputs": [
        {
          "indexed": true,
          "internalType": "address",
          "name": "user",
          "type": "address"
        }
      ],
      "name": "UserVerified",
      "type": "event"
    },
    {
      "inputs": [
        {
          "internalType": "address",
          "name": "_user",
          "type": "address"
        }
      ],
      "name": "getDoctorProfile",
      "outputs": [
        {
          "internalType": "string",
          "name": "",
          "type": "string"
        },
        {
          "internalType": "string",
          "name": "",
          "type": "string"
        },
        {
          "internalType": "string",
          "name": "",
          "type": "string"
        },
        {
          "internalType": "uint32",
          "name": "",
          "type": "uint32"
        },
        {
          "internalType": "string",
          "name": "",
          "type": "string"
        },
        {
          "internalType": "string",
          "name": "",
          "type": "string"
        },
        {
          "internalType": "string",
          "name": "",
          "type": "string"
        },
        {
          "internalType": "bool",
          "name": "",
          "type": "bool"
        },
        {
          "internalType": "bool",
          "name": "",
          "type": "bool"
        }
      ],
      "stateMutability": "view",
      "type": "function"
    },
    {
      "inputs": [
        {
          "internalType": "address",
          "name": "_user",
          "type": "address"
        }
      ],
      "name": "getPatientProfile",
      "outputs": [
        {
          "internalType": "string",
          "name": "",
          "type": "string"
        },
        {
          "internalType": "string",
          "name": "",
          "type": "string"
        },
        {
          "internalType": "string",
          "name": "",
          "type": "string"
        },
        {
          "internalType": "string",
          "name": "",
          "type": "string"
        }
      ],
      "stateMutability": "view",
      "type": "function"
    },
    {
      "inputs": [
        {
          "internalType": "address",
          "name": "_user",
          "type": "address"
        }
      ],
      "name": "getPharmacyProfile",
      "outputs": [
        {
          "internalType": "string",
          "name": "",
          "type": "string"
        },
        {
          "internalType": "uint32",
          "name": "",
          "type": "uint32"
        },
        {
          "internalType": "string",
          "name": "",
          "type": "string"
        },
        {
          "internalType": "string",
          "name": "",
          "type": "string"
        },
        {
          "internalType": "string",
          "name": "",
          "type": "string"
        },
        {
          "internalType": "string",
          "name": "",
          "type": "string"
        },
        {
          "internalType": "bool",
          "name": "",
          "type": "bool"
        },
        {
          "internalType": "bool",
          "name": "",
          "type": "bool"
        }
      ],
      "stateMutability": "view",
      "type": "function"
    },
    {
      "inputs": [
        {
          "internalType": "address",
          "name": "_user",
          "type": "address"
        }
      ],
      "name": "getRole",
      "outputs": [
        {
          "internalType": "enum UserManagement.Role",
          "name": "",
          "type": "uint8"
        }
      ],
      "stateMutability": "view",
      "type": "function"
    },
    {
      "inputs": [
        {
          "internalType": "address",
          "name": "_doctor",
          "type": "address"
        }
      ],
      "name": "isDoctorVerified",
      "outputs": [
        {
          "internalType": "bool",
          "name": "",
          "type": "bool"
        }
      ],
      "stateMutability": "view",
      "type": "function"
    },
    {
      "inputs": [
        {
          "internalType": "address",
          "name": "_pharmacy",
          "type": "address"
        }
      ],
      "name": "isPharmacyVerified",
      "outputs": [
        {
          "internalType": "bool",
          "name": "",
          "type": "bool"
        }
      ],
      "stateMutability": "view",
      "type": "function"
    },
    {
      "inputs": [],
      "name": "owner",
      "outputs": [
        {
          "internalType": "address",
          "name": "",
          "type": "address"
        }
      ],
      "stateMutability": "view",
      "type": "function"
    },
    {
      "inputs": [
        {
          "internalType": "string",
          "name": "_firstName",
          "type": "string"
        },
        {
          "internalType": "string",
          "name": "_lastName",
          "type": "string"
        },
        {
          "internalType": "string",
          "name": "_about",
          "type": "string"
        },
        {
          "internalType": "uint32",
          "name": "_yearsOfExperience",
          "type": "uint32"
        },
        {
          "internalType": "string",
          "name": "_clinicName",
          "type": "string"
        },
        {
          "internalType": "string",
          "name": "_licenseNumber",
          "type": "string"
        },
        {
          "internalType": "string",
          "name": "_medicalCertificateHash",
          "type": "string"
        }
      ],
      "name": "registerDoctor",
      "outputs": [],
      "stateMutability": "nonpayable",
      "type": "function"
    },
    {
      "inputs": [
        {
          "internalType": "string",
          "name": "_firstName",
          "type": "string"
        },
        {
          "internalType": "string",
          "name": "_lastName",
          "type": "string"
        },
        {
          "internalType": "string",
          "name": "_dob",
          "type": "string"
        },
        {
          "internalType": "string",
          "name": "_healthInfo",
          "type": "string"
        }
      ],
      "name": "registerPatient",
      "outputs": [],
      "stateMutability": "nonpayable",
      "type": "function"
    },
    {
      "inputs": [
        {
          "internalType": "string",
          "name": "_storeName",
          "type": "string"
        },
        {
          "internalType": "uint32",
          "name": "_businessNumber",
          "type": "uint32"
        },
        {
          "internalType": "string",
          "name": "_pharmacyOwnerName",
          "type": "string"
        },
        {
          "internalType": "string",
          "name": "_storeLocation",
          "type": "string"
        },
        {
          "internalType": "string",
          "name": "_businessNumberCertificate",
          "type": "string"
        },
        {
          "internalType": "string",
          "name": "_licenseNumberCertificateHash",
          "type": "string"
        }
      ],
      "name": "registerPharmacy",
      "outputs": [],
      "stateMutability": "nonpayable",
      "type": "function"
    },
    {
      "inputs": [],
      "name": "renounceOwnership",
      "outputs": [],
      "stateMutability": "nonpayable",
      "type": "function"
    },
    {
      "inputs": [
        {
          "internalType": "address",
          "name": "newOwner",
          "type": "address"
        }
      ],
      "name": "transferOwnership",
      "outputs": [],
      "stateMutability": "nonpayable",
      "type": "function"
    },
    {
      "inputs": [
        {
          "internalType": "address",
          "name": "_user",
          "type": "address"
        },
        {
          "internalType": "enum UserManagement.Role",
          "name": "role",
          "type": "uint8"
        }
      ],
      "name": "verifyUser",
      "outputs": [],
      "stateMutability": "nonpayable",
      "type": "function"
    }
  ],
  "bytecode": "0x60806040523480156200001157600080fd5b5033600073ffffffffffffffffffffffffffffffffffffffff168173ffffffffffffffffffffffffffffffffffffffff1603620000885760006040517f1e4fbdf70000000000000000000000000000000000000000000000000000000081526004016200007f9190620001a9565b60405180910390fd5b6200009981620000a060201b60201c565b50620001c6565b60008060009054906101000a900473ffffffffffffffffffffffffffffffffffffffff169050816000806101000a81548173ffffffffffffffffffffffffffffffffffffffff021916908373ffffffffffffffffffffffffffffffffffffffff1602179055508173ffffffffffffffffffffffffffffffffffffffff168173ffffffffffffffffffffffffffffffffffffffff167f8be0079c531659141344cd1fd0a4f28419497f9722a3daafe3b4186f6b6457e060405160405180910390a35050565b600073ffffffffffffffffffffffffffffffffffffffff82169050919050565b6000620001918262000164565b9050919050565b620001a38162000184565b82525050565b6000602082019050620001c0600083018462000198565b92915050565b61297d80620001d66000396000f3fe608060405234801561001057600080fd5b50600436106100cf5760003560e01c80636e168a771161008c578063c2c3242511610066578063c2c3242514610236578063cbe07ef614610252578063ebe0d50614610282578063f2fde38b1461029e576100cf565b80636e168a77146101d7578063715018a61461020e5780638da5cb5b14610218576100cf565b80630b13acdf146100d45780633c8f8666146101045780634427673314610120578063461a2082146101505780634ba0a020146101835780635cbcd8eb1461019f575b600080fd5b6100ee60048036038101906100e99190611dd8565b6102ba565b6040516100fb9190611e20565b60405180910390f35b61011e60048036038101906101199190611fbd565b610399565b005b61013a60048036038101906101359190611dd8565b61064c565b604051610147919061214d565b60405180910390f35b61016a60048036038101906101659190611dd8565b6106a2565b60405161017a94939291906121e7565b60405180910390f35b61019d60048036038101906101989190612248565b6109b8565b005b6101b960048036038101906101b49190611dd8565b610bf0565b6040516101ce9998979695949392919061232e565b60405180910390f35b6101f160048036038101906101ec9190611dd8565b61109f565b6040516102059897969594939291906123e5565b60405180910390f35b6102166114b0565b005b6102206114c4565b60405161022d9190612495565b60405180910390f35b610250600480360381019061024b91906124d5565b6114ed565b005b61026c60048036038101906102679190611dd8565b6116c9565b6040516102799190611e20565b60405180910390f35b61029c60048036038101906102979190612515565b6117a8565b005b6102b860048036038101906102b39190611dd8565b611a79565b005b6000600360008373ffffffffffffffffffffffffffffffffffffffff1673ffffffffffffffffffffffffffffffffffffffff16815260200190815260200160002060070160009054906101000a900460ff16610342576040517f54069c0700000000000000000000000000000000000000000000000000000000815260040160405180910390fd5b600360008373ffffffffffffffffffffffffffffffffffffffff1673ffffffffffffffffffffffffffffffffffffffff16815260200190815260200160002060070160019054906101000a900460ff169050919050565b6103a1611aff565b6103a9611b67565b600260003373ffffffffffffffffffffffffffffffffffffffff1673ffffffffffffffffffffffffffffffffffffffff16815260200190815260200160002060060160009054906101000a900460ff1615610430576040517f3a81d6fc00000000000000000000000000000000000000000000000000000000815260040160405180910390fd5b6040518061010001604052808781526020018663ffffffff16815260200185815260200184815260200183815260200182815260200160011515815260200160001515815250600260003373ffffffffffffffffffffffffffffffffffffffff1673ffffffffffffffffffffffffffffffffffffffff16815260200190815260200160002060008201518160000190816104ca9190612875565b5060208201518160010160006101000a81548163ffffffff021916908363ffffffff16021790555060408201518160020190816105079190612875565b50606082015181600301908161051d9190612875565b5060808201518160040190816105339190612875565b5060a08201518160050190816105499190612875565b5060c08201518160060160006101000a81548160ff02191690831515021790555060e08201518160060160016101000a81548160ff0219169083151502179055509050506002600460003373ffffffffffffffffffffffffffffffffffffffff1673ffffffffffffffffffffffffffffffffffffffff16815260200190815260200160002060006101000a81548160ff021916908360038111156105f0576105ef6120d6565b5b02179055503373ffffffffffffffffffffffffffffffffffffffff167f8e18574f8a7333e6a87112742a55853a643e2f0550f4e1a3a2c3f1bb2994441d600260405161063c919061214d565b60405180910390a2505050505050565b6000600460008373ffffffffffffffffffffffffffffffffffffffff1673ffffffffffffffffffffffffffffffffffffffff16815260200190815260200160002060009054906101000a900460ff169050919050565b6060806060806000600160008773ffffffffffffffffffffffffffffffffffffffff1673ffffffffffffffffffffffffffffffffffffffff1681526020019081526020016000206040518060a00160405290816000820180546107049061268e565b80601f01602080910402602001604051908101604052809291908181526020018280546107309061268e565b801561077d5780601f106107525761010080835404028352916020019161077d565b820191906000526020600020905b81548152906001019060200180831161076057829003601f168201915b505050505081526020016001820180546107969061268e565b80601f01602080910402602001604051908101604052809291908181526020018280546107c29061268e565b801561080f5780601f106107e45761010080835404028352916020019161080f565b820191906000526020600020905b8154815290600101906020018083116107f257829003601f168201915b505050505081526020016002820180546108289061268e565b80601f01602080910402602001604051908101604052809291908181526020018280546108549061268e565b80156108a15780601f10610876576101008083540402835291602001916108a1565b820191906000526020600020905b81548152906001019060200180831161088457829003601f168201915b505050505081526020016003820180546108ba9061268e565b80601f01602080910402602001604051908101604052809291908181526020018280546108e69061268e565b80156109335780601f1061090857610100808354040283529160200191610933565b820191906000526020600020905b81548152906001019060200180831161091657829003601f168201915b505050505081526020016004820160009054906101000a900460ff16151515158152505090508060800151610994576040517faba4733900000000000000000000000000000000000000000000000000000000815260040160405180910390fd5b80600001518160200151826040015183606001519450945094509450509193509193565b6109c0611aff565b6109c8611b67565b600160003373ffffffffffffffffffffffffffffffffffffffff1673ffffffffffffffffffffffffffffffffffffffff16815260200190815260200160002060040160009054906101000a900460ff1615610a4f576040517f3a81d6fc00000000000000000000000000000000000000000000000000000000815260040160405180910390fd5b6040518060a0016040528085815260200184815260200183815260200182815260200160011515815250600160003373ffffffffffffffffffffffffffffffffffffffff1673ffffffffffffffffffffffffffffffffffffffff1681526020019081526020016000206000820151816000019081610acd9190612875565b506020820151816001019081610ae39190612875565b506040820151816002019081610af99190612875565b506060820151816003019081610b0f9190612875565b5060808201518160040160006101000a81548160ff0219169083151502179055509050506001600460003373ffffffffffffffffffffffffffffffffffffffff1673ffffffffffffffffffffffffffffffffffffffff16815260200190815260200160002060006101000a81548160ff02191690836003811115610b9657610b956120d6565b5b02179055503373ffffffffffffffffffffffffffffffffffffffff167f8e18574f8a7333e6a87112742a55853a643e2f0550f4e1a3a2c3f1bb2994441d6001604051610be2919061214d565b60405180910390a250505050565b6060806060600060608060606000806000600360008c73ffffffffffffffffffffffffffffffffffffffff1673ffffffffffffffffffffffffffffffffffffffff16815260200190815260200160002060405180610120016040529081600082018054610c5c9061268e565b80601f0160208091040260200160405190810160405280929190818152602001828054610c889061268e565b8015610cd55780601f10610caa57610100808354040283529160200191610cd5565b820191906000526020600020905b815481529060010190602001808311610cb857829003601f168201915b50505050508152602001600182018054610cee9061268e565b80601f0160208091040260200160405190810160405280929190818152602001828054610d1a9061268e565b8015610d675780601f10610d3c57610100808354040283529160200191610d67565b820191906000526020600020905b815481529060010190602001808311610d4a57829003601f168201915b50505050508152602001600282018054610d809061268e565b80601f0160208091040260200160405190810160405280929190818152602001828054610dac9061268e565b8015610df95780601f10610dce57610100808354040283529160200191610df9565b820191906000526020600020905b815481529060010190602001808311610ddc57829003601f168201915b505050505081526020016003820160009054906101000a900463ffffffff1663ffffffff1663ffffffff168152602001600482018054610e389061268e565b80601f0160208091040260200160405190810160405280929190818152602001828054610e649061268e565b8015610eb15780601f10610e8657610100808354040283529160200191610eb1565b820191906000526020600020905b815481529060010190602001808311610e9457829003601f168201915b50505050508152602001600582018054610eca9061268e565b80601f0160208091040260200160405190810160405280929190818152602001828054610ef69061268e565b8015610f435780601f10610f1857610100808354040283529160200191610f43565b820191906000526020600020905b815481529060010190602001808311610f2657829003601f168201915b50505050508152602001600682018054610f5c9061268e565b80601f0160208091040260200160405190810160405280929190818152602001828054610f889061268e565b8015610fd55780601f10610faa57610100808354040283529160200191610fd5565b820191906000526020600020905b815481529060010190602001808311610fb857829003601f168201915b505050505081526020016007820160009054906101000a900460ff161515151581526020016007820160019054906101000a900460ff16151515158152505090508060e00151611051576040517faba4733900000000000000000000000000000000000000000000000000000000815260040160405180910390fd5b806000015181602001518260400151836060015184608001518560a001518660c001518760e00151886101000151995099509950995099509950995099509950509193959799909294969850565b606060006060806060806000806000600260008b73ffffffffffffffffffffffffffffffffffffffff1673ffffffffffffffffffffffffffffffffffffffff168152602001908152602001600020604051806101000160405290816000820180546111099061268e565b80601f01602080910402602001604051908101604052809291908181526020018280546111359061268e565b80156111825780601f1061115757610100808354040283529160200191611182565b820191906000526020600020905b81548152906001019060200180831161116557829003601f168201915b505050505081526020016001820160009054906101000a900463ffffffff1663ffffffff1663ffffffff1681526020016002820180546111c19061268e565b80601f01602080910402602001604051908101604052809291908181526020018280546111ed9061268e565b801561123a5780601f1061120f5761010080835404028352916020019161123a565b820191906000526020600020905b81548152906001019060200180831161121d57829003601f168201915b505050505081526020016003820180546112539061268e565b80601f016020809104026020016040519081016040528092919081815260200182805461127f9061268e565b80156112cc5780601f106112a1576101008083540402835291602001916112cc565b820191906000526020600020905b8154815290600101906020018083116112af57829003601f168201915b505050505081526020016004820180546112e59061268e565b80601f01602080910402602001604051908101604052809291908181526020018280546113119061268e565b801561135e5780601f106113335761010080835404028352916020019161135e565b820191906000526020600020905b81548152906001019060200180831161134157829003601f168201915b505050505081526020016005820180546113779061268e565b80601f01602080910402602001604051908101604052809291908181526020018280546113a39061268e565b80156113f05780601f106113c5576101008083540402835291602001916113f0565b820191906000526020600020905b8154815290600101906020018083116113d357829003601f168201915b505050505081526020016006820160009054906101000a900460ff161515151581526020016006820160019054906101000a900460ff16151515158152505090508060c0015161146c576040517faba4733900000000000000000000000000000000000000000000000000000000815260040160405180910390fd5b806000015181602001518260400151836060015184608001518560a001518660c001518760e001519850985098509850985098509850985050919395975091939597565b6114b8611c13565b6114c26000611c9a565b565b60008060009054906101000a900473ffffffffffffffffffffffffffffffffffffffff16905090565b6114f5611c13565b60026003811115611509576115086120d6565b5b81600381111561151c5761151b6120d6565b5b036115c4576001600260008473ffffffffffffffffffffffffffffffffffffffff1673ffffffffffffffffffffffffffffffffffffffff16815260200190815260200160002060060160016101000a81548160ff0219169083151502179055508173ffffffffffffffffffffffffffffffffffffffff167fa6625d2d26e786e2f473111bea4b2fcdbbf1863d883a2359989ce3a103d2972a60405160405180910390a26116c5565b6003808111156115d7576115d66120d6565b5b8160038111156115ea576115e96120d6565b5b03611692576001600360008473ffffffffffffffffffffffffffffffffffffffff1673ffffffffffffffffffffffffffffffffffffffff16815260200190815260200160002060070160016101000a81548160ff0219169083151502179055508173ffffffffffffffffffffffffffffffffffffffff167fa6625d2d26e786e2f473111bea4b2fcdbbf1863d883a2359989ce3a103d2972a60405160405180910390a26116c4565b6040517fd954416a00000000000000000000000000000000000000000000000000000000815260040160405180910390fd5b5b5050565b6000600260008373ffffffffffffffffffffffffffffffffffffffff1673ffffffffffffffffffffffffffffffffffffffff16815260200190815260200160002060060160009054906101000a900460ff16611751576040517f88e850da00000000000000000000000000000000000000000000000000000000815260040160405180910390fd5b600260008373ffffffffffffffffffffffffffffffffffffffff1673ffffffffffffffffffffffffffffffffffffffff16815260200190815260200160002060060160019054906101000a900460ff169050919050565b6117b0611aff565b6117b8611b67565b600360003373ffffffffffffffffffffffffffffffffffffffff1673ffffffffffffffffffffffffffffffffffffffff16815260200190815260200160002060070160009054906101000a900460ff161561183f576040517f3a81d6fc00000000000000000000000000000000000000000000000000000000815260040160405180910390fd5b6040518061012001604052808881526020018781526020018681526020018563ffffffff16815260200184815260200183815260200182815260200160011515815260200160001515815250600360003373ffffffffffffffffffffffffffffffffffffffff1673ffffffffffffffffffffffffffffffffffffffff16815260200190815260200160002060008201518160000190816118df9190612875565b5060208201518160010190816118f59190612875565b50604082015181600201908161190b9190612875565b5060608201518160030160006101000a81548163ffffffff021916908363ffffffff16021790555060808201518160040190816119489190612875565b5060a082015181600501908161195e9190612875565b5060c08201518160060190816119749190612875565b5060e08201518160070160006101000a81548160ff0219169083151502179055506101008201518160070160016101000a81548160ff0219169083151502179055509050506003600460003373ffffffffffffffffffffffffffffffffffffffff1673ffffffffffffffffffffffffffffffffffffffff16815260200190815260200160002060006101000a81548160ff02191690836003811115611a1c57611a1b6120d6565b5b02179055503373ffffffffffffffffffffffffffffffffffffffff167f8e18574f8a7333e6a87112742a55853a643e2f0550f4e1a3a2c3f1bb2994441d6003604051611a68919061214d565b60405180910390a250505050505050565b611a81611c13565b600073ffffffffffffffffffffffffffffffffffffffff168173ffffffffffffffffffffffffffffffffffffffff1603611af35760006040517f1e4fbdf7000000000000000000000000000000000000000000000000000000008152600401611aea9190612495565b60405180910390fd5b611afc81611c9a565b50565b600073ffffffffffffffffffffffffffffffffffffffff163373ffffffffffffffffffffffffffffffffffffffff1603611b65576040517f287170f900000000000000000000000000000000000000000000000000000000815260040160405180910390fd5b565b60006003811115611b7b57611b7a6120d6565b5b600460003373ffffffffffffffffffffffffffffffffffffffff1673ffffffffffffffffffffffffffffffffffffffff16815260200190815260200160002060009054906101000a900460ff166003811115611bda57611bd96120d6565b5b14611c11576040517fa2b8f74800000000000000000000000000000000000000000000000000000000815260040160405180910390fd5b565b611c1b611d5e565b73ffffffffffffffffffffffffffffffffffffffff16611c396114c4565b73ffffffffffffffffffffffffffffffffffffffff1614611c9857611c5c611d5e565b6040517f118cdaa7000000000000000000000000000000000000000000000000000000008152600401611c8f9190612495565b60405180910390fd5b565b60008060009054906101000a900473ffffffffffffffffffffffffffffffffffffffff169050816000806101000a81548173ffffffffffffffffffffffffffffffffffffffff021916908373ffffffffffffffffffffffffffffffffffffffff1602179055508173ffffffffffffffffffffffffffffffffffffffff168173ffffffffffffffffffffffffffffffffffffffff167f8be0079c531659141344cd1fd0a4f28419497f9722a3daafe3b4186f6b6457e060405160405180910390a35050565b600033905090565b6000604051905090565b600080fd5b600080fd5b600073ffffffffffffffffffffffffffffffffffffffff82169050919050565b6000611da582611d7a565b9050919050565b611db581611d9a565b8114611dc057600080fd5b50565b600081359050611dd281611dac565b92915050565b600060208284031215611dee57611ded611d70565b5b6000611dfc84828501611dc3565b91505092915050565b60008115159050919050565b611e1a81611e05565b82525050565b6000602082019050611e356000830184611e11565b92915050565b600080fd5b600080fd5b6000601f19601f8301169050919050565b7f4e487b7100000000000000000000000000000000000000000000000000000000600052604160045260246000fd5b611e8e82611e45565b810181811067ffffffffffffffff82111715611ead57611eac611e56565b5b80604052505050565b6000611ec0611d66565b9050611ecc8282611e85565b919050565b600067ffffffffffffffff821115611eec57611eeb611e56565b5b611ef582611e45565b9050602081019050919050565b82818337600083830152505050565b6000611f24611f1f84611ed1565b611eb6565b905082815260208101848484011115611f4057611f3f611e40565b5b611f4b848285611f02565b509392505050565b600082601f830112611f6857611f67611e3b565b5b8135611f78848260208601611f11565b91505092915050565b600063ffffffff82169050919050565b611f9a81611f81565b8114611fa557600080fd5b50565b600081359050611fb781611f91565b92915050565b60008060008060008060c08789031215611fda57611fd9611d70565b5b600087013567ffffffffffffffff811115611ff857611ff7611d75565b5b61200489828a01611f53565b965050602061201589828a01611fa8565b955050604087013567ffffffffffffffff81111561203657612035611d75565b5b61204289828a01611f53565b945050606087013567ffffffffffffffff81111561206357612062611d75565b5b61206f89828a01611f53565b935050608087013567ffffffffffffffff8111156120905761208f611d75565b5b61209c89828a01611f53565b92505060a087013567ffffffffffffffff8111156120bd576120bc611d75565b5b6120c989828a01611f53565b9150509295509295509295565b7f4e487b7100000000000000000000000000000000000000000000000000000000600052602160045260246000fd5b60048110612116576121156120d6565b5b50565b600081905061212782612105565b919050565b600061213782612119565b9050919050565b6121478161212c565b82525050565b6000602082019050612162600083018461213e565b92915050565b600081519050919050565b600082825260208201905092915050565b60005b838110156121a2578082015181840152602081019050612187565b60008484015250505050565b60006121b982612168565b6121c38185612173565b93506121d3818560208601612184565b6121dc81611e45565b840191505092915050565b6000608082019050818103600083015261220181876121ae565b9050818103602083015261221581866121ae565b9050818103604083015261222981856121ae565b9050818103606083015261223d81846121ae565b905095945050505050565b6000806000806080858703121561226257612261611d70565b5b600085013567ffffffffffffffff8111156122805761227f611d75565b5b61228c87828801611f53565b945050602085013567ffffffffffffffff8111156122ad576122ac611d75565b5b6122b987828801611f53565b935050604085013567ffffffffffffffff8111156122da576122d9611d75565b5b6122e687828801611f53565b925050606085013567ffffffffffffffff81111561230757612306611d75565b5b61231387828801611f53565b91505092959194509250565b61232881611f81565b82525050565b6000610120820190508181036000830152612349818c6121ae565b9050818103602083015261235d818b6121ae565b90508181036040830152612371818a6121ae565b9050612380606083018961231f565b818103608083015261239281886121ae565b905081810360a08301526123a681876121ae565b905081810360c08301526123ba81866121ae565b90506123c960e0830185611e11565b6123d7610100830184611e11565b9a9950505050505050505050565b6000610100820190508181036000830152612400818b6121ae565b905061240f602083018a61231f565b818103604083015261242181896121ae565b9050818103606083015261243581886121ae565b9050818103608083015261244981876121ae565b905081810360a083015261245d81866121ae565b905061246c60c0830185611e11565b61247960e0830184611e11565b9998505050505050505050565b61248f81611d9a565b82525050565b60006020820190506124aa6000830184612486565b92915050565b600481106124bd57600080fd5b50565b6000813590506124cf816124b0565b92915050565b600080604083850312156124ec576124eb611d70565b5b60006124fa85828601611dc3565b925050602061250b858286016124c0565b9150509250929050565b600080600080600080600060e0888a03121561253457612533611d70565b5b600088013567ffffffffffffffff81111561255257612551611d75565b5b61255e8a828b01611f53565b975050602088013567ffffffffffffffff81111561257f5761257e611d75565b5b61258b8a828b01611f53565b965050604088013567ffffffffffffffff8111156125ac576125ab611d75565b5b6125b88a828b01611f53565b95505060606125c98a828b01611fa8565b945050608088013567ffffffffffffffff8111156125ea576125e9611d75565b5b6125f68a828b01611f53565b93505060a088013567ffffffffffffffff81111561261757612616611d75565b5b6126238a828b01611f53565b92505060c088013567ffffffffffffffff81111561264457612643611d75565b5b6126508a828b01611f53565b91505092959891949750929550565b7f4e487b7100000000000000000000000000000000000000000000000000000000600052602260045260246000fd5b600060028204905060018216806126a657607f821691505b6020821081036126b9576126b861265f565b5b50919050565b60008190508160005260206000209050919050565b60006020601f8301049050919050565b600082821b905092915050565b6000600883026127217fffffffffffffffffffffffffffffffffffffffffffffffffffffffffffffffff826126e4565b61272b86836126e4565b95508019841693508086168417925050509392505050565b6000819050919050565b6000819050919050565b600061277261276d61276884612743565b61274d565b612743565b9050919050565b6000819050919050565b61278c83612757565b6127a061279882612779565b8484546126f1565b825550505050565b600090565b6127b56127a8565b6127c0818484612783565b505050565b5b818110156127e4576127d96000826127ad565b6001810190506127c6565b5050565b601f821115612829576127fa816126bf565b612803846126d4565b81016020851015612812578190505b61282661281e856126d4565b8301826127c5565b50505b505050565b600082821c905092915050565b600061284c6000198460080261282e565b1980831691505092915050565b6000612865838361283b565b9150826002028217905092915050565b61287e82612168565b67ffffffffffffffff81111561289757612896611e56565b5b6128a1825461268e565b6128ac8282856127e8565b600060209050601f8311600181146128df57600084156128cd578287015190505b6128d78582612859565b86555061293f565b601f1984166128ed866126bf565b60005b82811015612915578489015182556001820191506020850194506020810190506128f0565b86831015612932578489015161292e601f89168261283b565b8355505b6001600288020188555050505b50505050505056fea264697066735822122094f7c5bae213e4e555cb8312157c4a4dbfb135862211f5171b91af3f18184ccb64736f6c63430008180033",
  "linkReferences": {},
  "deployedLinkReferences": {}
}